:020000040800F2
:10000000905A00209D010008552C0008ED1E0008A4
:10001000512C0008C5050008FD3A0008000000004A
:10002000000000000000000000000000C5330008D0
:10003000F30600080000000031320008C733000852
:10004000B7010008B7010008B7010008B7010008B0
:10005000B7010008B7010008B7010008B7010008A0
:10006000B7010008B7010008B7010008B701000890
:10007000B7010008B7010008B7010008B701000880
:10008000C9050008B7010008B7010008B70100085A
:10009000B7010008B7010008B7010008F50600081D
:1000A000B7010008B7010008B7010008B701000850
:1000B000B7010008B7010008B7010008B701000840
:1000C000B7010008B7010008B7010008B701000830
:1000D000B7010008ED3A0008B7010008B7010008B1
:1000E000B7010008B7010008B7010008B701000810
:1000F000B7010008B7010008B7010008B701000800
:10010000B7010008B7010008B7010008B7010008EF
:10011000B7010008B7010008B7010008B7010008DF
:10012000B7010008B7010008D9050008B7010008A9
:10013000B7010008B7010008B7010008B7010008BF
:10014000B7010008B7010008B7010008B7010008AF
:10015000B7010008B7010008B7010008B70100089F
:10016000B7010008B7010008B7010008B70100088F
:10017000B7010008B7010008B7010008000000003F
:10018000B7010008B7010008DFF80CD000F020F834
:1001900000480047993B0008905A002006488047D5
:1001A00006480047FEE7FEE7FEE7FEE7FEE7FEE75C
:1001B000FEE7FEE7FEE7FEE7B53400088901000828
:1001C000421C10F8011B0029FBD1801A7047000067
:1001D000064C074D06E0E06840F0010394E8070094
:1001E00098471034AC42F6D3FFF7D2FF9856020876
:1001F000B856020870B58C1810F8015B15F00703AB
:1002000001D110F8013B2A1106D110F8012B03E0AF
:1002100010F8016B01F8016B5B1EF9D12B0705D4B7
:100220000023521E0DD401F8013BFAE710F8013B00
:10023000CB1A921C03E013F8015B01F8015B521E1C
:10024000F9D5A142D8D3002070BD00002DE9F041BE
:1002500006460D461746002D26D03A46294630461A
:1002600001F064FD0446012C0ED1002002F076FA64
:100270004FF438400E4908800EA340224FF4967187
:10028000C82002F0AFFD0FE0022C0DD1002002F0DB
:1002900065FA4FF43840064908800AA340224FF41B
:1002A0009671C82002F09EFD2046BDE8F081000056
:1002B000140000204552524F5220425546464552A6
:1002C0002100000054484520444D412069732055C9
:1002D00053696E672C706C65617365207761697412
:1002E0002100000010B5044600200B4908804FF69D
:1002F000FF700A490880002002F030FA21461720DA
:1003000002F084FF00F010F902F098FD214617205A
:1003100002F0E2FD10BD00001600002014000020D5
:1003200010B5322304221C491C4801F073FD044619
:10033000032C0ED1002002F011FA4FF43840184976
:10034000088018A340224FF49671C82002F04AFD9D
:1003500020E0012C0ED1002002F000FA4FF43840CA
:100360000F49088014A340224FF49671C82002F070
:1003700039FD0FE0022C0DD1002002F0EFF94FF40F
:1003800038400749088010A340224FF49671C820D6
:1003900002F028FD204610BD200000201C11002086
:1003A00014000020526571756573742074696D6561
:1003B0006F757421000000005265717565737420BB
:1003C0006572726F722100005468652064657669F9
:1003D00063652069732062757379210038B5002444
:1003E0004948007840BB4948007830B902F03FF9ED
:1003F00002F044F90120454908701BE0444802F02E
:1004000019FF434800880A2810DB41480088442827
:100410000CDC3F4840880A2808DB3D4840884428D7
:1004200004DC03F0F5FB01203749087036480078FA
:1004300000B100E0E2E700BF33480078012861D155
:1004400002F040FC07E0324802F0F4FE3048007948
:10045000022800D100E0F6E700BF03F0D9FBFFF768
:100460005FFF00284ED140F206422A492A48FFF792
:10047000EDFE02F051FC28E00020284908804FF6EC
:100480001F002749088004EBC40101EB04119622E8
:1004900002EB810040232E22FA2102F06BF8322079
:1004A00003F049FB601CC4B2062C0ED11B48008827
:1004B0004FF4C87340F25532FA210090962002F0B2
:1004C0006BF90024322003F036FB1648007801282F
:1004D000D2D114480078012814D10E48C01CFFF76F
:1004E00001FF08E000F020F802F0A8FC0949C91C4F
:1004F000172002F0F1FC044800780128F2D0002017
:100500000849087038BD00001800002019000020BC
:10051000701600207C1600201C1100201600002000
:10052000140000202400002010B530E0214802F023
:1005300081FE20480079022829D11E4840790128EF
:100540000CD11C48B0F9080010F1C80F16DC1A488D
:100550000078401C40B21849087019E015484079ED
:1005600002280BD11348B0F90A00C82806DB12484C
:100570000078401E40B21049087009E00D4800881C
:10058000172804DA00200D4908700D490870CDE7DE
:1005900000BF094890F90000002804DB064890F9E4
:1005A0000000052802DD00200349087003F030FB3D
:1005B00010BD0000701600201A0000201800002056
:1005C0001900002000BFFEE710B50249486B02F099
:1005D000D5FF10BD1C11002010B5024800F0E6F94F
:1005E00010BD0000BC100020014608781038182308
:1005F000B0FBF3F20848805CC865032A05D9086897
:100600006FF30900001D886503E008686FF30900B7
:100610008865886D704700004C3C0008014600204A
:100620008A6A8B69CBB932B1012A0DD0022A03D074
:10063000032A10D10EE000BFCB6A03F08073B3F140
:10064000807F00D1012007E0CB6AB3F1C07F00D1E9
:10065000012001E000E000BF34E08B69B3F5005FEA
:100660001AD132B1012A07D0022A03D0032A11D1AC
:100670000AE000BF01200EE0CB6A03F08073B3F103
:10068000807F00D1012006E0CB6AB3F1C07F00D1AA
:10069000012000E000BF15E032B1012A05D0022A96
:1006A00004D0032A0CD103E000BF00BF012008E002
:1006B000CB6A03F08073B3F1807F00D1012000E0AA
:1006C00000BF00BF704730B50468246824F480245C
:1006D00005682C60046863608468402C04D1046859
:1006E000A2600468E16003E00468A1600468E2605D
:1006F00030BD704710B54FF4807000F0A7FB10BDFF
:1007000070B504461D460023B5F5804F13D154F84B
:1007100022300C480340D1E9000640EA06108E68FA
:1007200040EA06208E8940EA06408E693043034342
:1007300044F8223003E06FF0704044F822000020BB
:1007400070BD00000000F0CF10B50346002208681D
:1007500053F8202012480240D1E901042043CC681C
:1007600020430C6920434C6920438C692043CC69A9
:1007700020430C6A20434C6A20438C6A2043CC6A95
:100780002043CC6B20430C6B20430243886808282D
:1007900001D142F04002086843F82020002010BD3B
:1007A0008000F0FF30B503460024501C53F8204071
:1007B00004F04044D1E9000540EA05108D6840EAA4
:1007C00005208D8940EA0545088A401E45EA005506
:1007D000087D801E45EA00608D6928430443501C53
:1007E00043F82040002030BD70B505460E46002479
:1007F00001F02EFC702001F0F1FB01F065FC0020FF
:1008000001F0ECFB01F060FC01F040FC01F020FC89
:10081000712001F0E3FB01F057FC00BF0DE0701EFA
:10082000A04204D1002001F0A7FB285503E00120DD
:1008300001F0A2FB2855601C44B2B442EFD301F092
:1008400025FC002070BD000000B587B000BF00206F
:1008500001901348006840F04000114908600846C4
:10086000006800F04000019000BF00BF032002902C
:1008700011200390002004900120059002A909484E
:1008800000F0F2FA01220221064800F0F5FB0122F5
:100890001146044800F0F0FB01F0F8FB07B000BD82
:1008A00030380240001802402DE9FF4F83B0DDF8D8
:1008B0000C80DDF81090DDE9030101F0E8FFDDF8C0
:1008C0000C800598A0EB0805DDF810900698A0EBC9
:1008D0000906002D02DB0120029003E04FF0FF30FB
:1008E00002906D42002E02DB0120019003E04FF0E8
:1008F000FF30019076424FEA450A4FEA460BB54277
:1009000017DDABEB0504002710E01FFA89F11FFA91
:1009100088F0109A00F028F8002C03DBA4EB0A04FE
:10092000019881445C44029880447F1CAF42ECDD16
:1009300016E0AAEB0604002710E01FFA89F11FFA5F
:1009400088F0109A00F010F8002C03DBA4EB0B04E5
:10095000029880445444019881447F1CB742ECDDE6
:1009600007B0BDE8F08F000070B505460E4614468E
:100970003146284601F08BFF0148048070BD00001D
:1009800000000260014691F83500022803D0802063
:10099000486501207047052081F835000868006827
:1009A00020F001000A6810600020F3E7F8B5044663
:1009B000002000908D4800684FF41651B0FBF1F70D
:1009C000A56D2E6894F85C1008208840304098B1DE
:1009D0002068006800F0040070B12068006820F012
:1009E00004002168086094F85C1008208840A86022
:1009F000606D40F00100606594F85C107C488840B0
:100A0000304068B12068406900F0800040B194F83F
:100A10005C1077488840A860606D40F00200606517
:100A200094F85C107248C01C8840304070B1206857
:100A3000006800F0020048B194F85C106C48C01CDB
:100A40008840A860606D40F00400606594F85C1018
:100A500010208840304078B32068006800F008001B
:100A600050B394F85C1010208840A860206800689B
:100A700000F4802080B12068006800F4002028B9CC
:100A8000206CC8B12046216C884715E0A06C98B155
:100A90002046A16C88470FE02068006800F4807051
:100AA00028B92068006820F0080021680860206CE0
:100AB00010B12046216C884794F85C1020208840B3
:100AC0003040002865D02068006800F01000002841
:100AD0005FD094F85C1020208840A86094F835001E
:100AE000052828D12068006820F0160021680860D9
:100AF0002068406920F0800021684861206C08B9B6
:100B0000A06C28B12068006820F008002168086007
:100B100094F85C103F208840A86000BF002084F853
:100B2000340000BF012084F83500206D10B120464C
:100B3000216D8847F8BD2068006800F4802080B1EE
:100B40002068006800F4002028B9606C10B12046CD
:100B5000616C88471DE0E06BD8B12046E16B8847A7
:100B600017E02068006800F4807068B920680068A9
:100B700020F010002168086000BF002084F83400D5
:100B800000BF012084F83500E06B10B12046E16B16
:100B90008847606D38B3606D00F00100F0B105204A
:100BA00084F835002068006820F0010021680860A2
:100BB00000BF0098401C0090B84200D905E02068B2
:100BC000006800F001000028F3D100BF00BF002042
:100BD00084F8340000BF012084F83500E06C10B1C7
:100BE0002046E16C884700BFA4E700000000002019
:100BF000010080002DE9F0410446002500F042FA92
:100C0000074614B90120BDE8F081606A00B100BF59
:100C100000BF002084F8340000BF022084F83500B3
:100C20002068006820F00100216808600AE000F0F8
:100C300029FAC01B052805D920206065032084F807
:100C40003500E0E72068006800F001000028EED1E0
:100C50002068056821480540D4E901010843E1689E
:100C600008432169084361690843A1690843E169B0
:100C70000843216A08430543606A042803D1D4E984
:100C80000B0108430543206805602068456925F08D
:100C90000705606A0543606A04280DD1A06A054310
:100CA000E06A48B12046FFF7B9FC28B140206065F2
:100CB000012084F83500A6E7206845612046FFF74B
:100CC00093FC064694F85C103F208840B0600020FA
:100CD0006065012084F83500002094E73F8010F023
:100CE0002DE9F04704460D4616461F464FF0000812
:100CF000D4F8589000BF94F83400012802D10220A3
:100D0000BDE8F087012084F8340000BF94F8350076
:100D100001282BD1022084F83500002060653B4675
:100D2000324629462046FFF7CEFC94F85C103F205F
:100D30008840C9F808002068006840F01600216863
:100D400008602068406940F0800021684861206C9C
:100D500028B12068006840F0080021680860206819
:100D6000006840F001002168086006E000BF002034
:100D700084F8340000BF4FF002084046C0E700008E
:100D800000B587B000BF002001902B48006840F0FC
:100D90000800294908600846006800F00800019032
:100DA00000BF00BF00BF002001900846006840F06F
:100DB000100008600846006800F01000019000BFB5
:100DC00000BF1E48006808B107B000BD01201B49E4
:100DD000086000BF0020019017480830006840F00C
:100DE00001001549083108600846006800F001005C
:100DF000019000BF00BF4FF6807002900220039068
:100E000000200490032005900C20069002A90C48B5
:100E100000F02AF84CF6B3700290022003900020F4
:100E20000490032005900C20069002A9054800F0CC
:100E30001BF800BFC8E7000030380240080000205F
:100E400000100240000C02407047000010B504463C
:100E500004480068204020B1024804602046FFF7A3
:100E6000F3FF10BD143C0140F8B502460B460025C7
:100E7000002400200021DCE0012606FA01F51E68AE
:100E800006EA0504AC4273D15E68022E02D05E68A9
:100E9000122E13D1CF0802F1200656F827004E0774
:100EA000F70E0F26BE40B0434F07FF0E1E69BE402F
:100EB0003043CF0802F1200646F8270010684F00A3
:100EC0000326BE40B0431E7906F003064F00BE4025
:100ED000304310605E68012E08D05E68022E05D097
:100EE0005E68112E02D05E68122E13D190684F00FA
:100EF0000326BE40B0434F00DE68BE4030439060E2
:100F0000506801268E40B0431E79C6F300168E400D
:100F100030435060D0684F000326BE40B0434F00BE
:100F20009E68BE403043D0605E6806F08056B6F1E1
:100F3000805F7DD100BF00260096404E366846F4A3
:100F400080463E4F3E603E46366806F48046009638
:100F500000BF00BF3A4E8F0856F827008E07370FA4
:100F60000F26BE40B043374EB24202D1002624E0E5
:100F70005EE0354EB24201D101261EE0334EB24250
:100F800001D1022619E0324EB24201D1032614E00B
:100F9000304EB24201D104260FE02F4EB24201D1B1
:100FA00005260AE02D4EB24201D1062605E02C4E60
:100FB000B24201D1072600E008268F073F0FBE404E
:100FC00030431F4E8F0846F82700264E3068A04356
:100FD0005E6806F48036B6F5803F00D12043214E8E
:100FE0003060361D3068A0435E6806F40036B6F502
:100FF000003F00D120431B4E361D3060361D306847
:10100000A0435E6806F48016B6F5801F00D1204329
:10101000144E08363060361D3068A0435E6806F412
:101020000016B6F5001F00D120430E4E0C3630607E
:10103000491C1029FFF420AFF8BD000044380240DD
:10104000083801400000024000040240000802404D
:10105000000C024000100240001402400018024040
:10106000001C0240003C0140024613690B400BB1DA
:10107000012000E0002070470AB1816101E00B040B
:101080008361704701480068704700000400002039
:1010900002480068401C01490860704704000020B5
:1010A00010B50D48006840F400700B490860084610
:1010B000006840F4806008600846006840F4807072
:1010C0000860032000F094F8002000F007F800F01A
:1010D00019F8002010BD0000003C024070B5044625
:1010E000074800684FF47A71B0FBF1F5284600F02C
:1010F00073FC00222146501E00F03CF8002070BD19
:101100000000002010B5032000F072F80022114604
:101110006FF00B0000F02EF8002211466FF00A006D
:1011200000F028F8002211466FF0090000F022F8C4
:1011300000221146501F00F01DF800221146101F1A
:1011400000F018F800221146901E00F013F800225B
:101150001146501E00F00EF810BD00BF00F01F0237
:10116000012191404209920002F1E022C2F80011EF
:1011700000BF70472DE9F05F80460D4616460027F8
:1011800001F06AFD074639462A46334601F007005A
:10119000C0F1070ABAF1040F02D94FF0040A01E0C6
:1011A000C0F1070AD14600F1040ABAF1070F02D2D2
:1011B0004FF0000A01E0A0F1030AD4464FF0010A03
:1011C0000AFA09FAAAF1010A0AEA020A0AFA0CFA68
:1011D0004FF0010B0BFA0CFBABF1010B0BEA030B0D
:1011E0004AEA0B042146404601F03EFDBDE8F09F6F
:1011F00000BF00F00702064B19684FF6FF031940C5
:10120000044B0B4343EA0221014B196000BF7047B6
:101210000CED00E00000FA0570B504460D4600260E
:101220006D48006800F00F00A84209D26A490D70AD
:101230000846006800F00F00A84201D0012070BDF0
:10124000207800F00200022807D16448006820F0EE
:10125000F000A168084361490860207800F00100AF
:10126000002877D06068012807D15C4808380068FA
:10127000C0F34040B8B90120E1E76068022802D01D
:101280006068032807D1554808380068C0F34060FB
:1012900048B90120D3E7514808380068C0F340003E
:1012A00008B90120CBE74D48006820F003006168D1
:1012B00008434A490860FFF7E5FE064660680128D2
:1012C00010D108E0FFF7DEFE801B41F28831884232
:1012D00001D90320B3E74148006800F00C0004285E
:1012E000F0D137E06068022810D108E0FFF7CAFEAD
:1012F000801B41F28831884201D903209FE737489B
:10130000006800F00C000828F0D123E06068032892
:1013100010D108E0FFF7B6FE801B41F28831884209
:1013200001D903208BE72D48006800F00C000C2841
:10133000F0D10FE008E0FFF7A5FE801B41F28831F5
:10134000884201D903207AE72448006800F00C00A5
:101350000028F0D12048006800F00F00A84209D909
:101360001D490D700846006800F00F00A84201D02A
:10137000012064E7207800F00400042807D1174812
:10138000006820F4E050E1680843144908602078C0
:1013900000F00800082808D11048006820F46040D8
:1013A000216940EAC1000D49086000F04FF80B497F
:1013B000096801F0F001F02292FAA2F2B2FA82F288
:1013C000D140074A515CC840064908600020FFF739
:1013D00085FE002033E70000003C02400838024050
:1013E000343C0008000000200148006870470000FD
:1013F0000000002000B5FFF7F7FF0749096801F476
:10140000E0514FF4E05292FAA2F2B2FA82F2D140E5
:10141000024A515CC84000BD08380240443C000804
:1014200000B5FFF7E1FF0749096801F460414FF497
:10143000604292FAA2F2B2FA82F2D140024A515CC0
:10144000C84000BD08380240443C000870B5002187
:10145000002200230020274C246804F00C0424B14F
:10146000042C04D0082C41D103E0234840E0234859
:101470003EE0204C241F246804F03F011D4C241F33
:10148000246804F4800484B11C4CB4FBF1F5194CBD
:10149000241F246847F6C076344096FAA6F6B6FABA
:1014A00086F6F44005FB04F20FE0134CB4FBF1F5B3
:1014B000104C241F246847F6C076344096FAA6F6EE
:1014C000B6FA86F6F44005FB04F20A4C241F2468A1
:1014D00004F440344FF4403595FAA5F5B5FA85F596
:1014E000EC40641C6300B2FBF3F001E0024800BF73
:1014F00000BF70BD083802400024F40000127A00DA
:1015000038B504460025207800F00100002874D08A
:10151000F748006800F00C0004280DD0F44800687B
:1015200000F00C00082813D1F148001F006800F4F7
:101530008000B0F5800F0BD1ED4808380068C0F38B
:101540004040002859D06068002856D1012038BD9D
:1015500000BF6068B0F5803F08D1E54808380068F2
:1015600040F48030E249083908601EE06068B0F558
:10157000A02F0DD1DE480838006840F48020DC49F7
:10158000083908600846006840F4803008600CE0C4
:10159000D7480838006820F48030D54908390860F9
:1015A0000846006820F48020086000BF606890B1A1
:1015B000FFF768FD054606E0FFF764FD401B642861
:1015C00001D90320C3E7CA4808380068C0F3404087
:1015D0000028F1D011E0FFF755FD054606E0FFF7C2
:1015E00051FD401B642801D90320B0E7C0480838EA
:1015F0000068C0F340400028F1D1207800F00200DC
:10160000022869D1BA48006800F00C0058B1B84807
:10161000006800F00C00082821D1B548001F0068C0
:1016200000F48000D8B9B24808380068C0F3400020
:1016300020B1E068012801D0012088E7AC480838D3
:10164000006820F0F800F82292FAA2F2B2FA82F2D0
:10165000216991400843A649083908603CE0E068E8
:1016600028B30120A3490860FFF70CFD054606E0FA
:10167000FFF708FD401B022801D9032067E79C48BB
:1016800008380068C0F340000028F1D098480838B6
:10169000006820F0F800F82292FAA2F2B2FA82F280
:1016A00021699140084392490839086014E00020FC
:1016B00090490860FFF7E6FC054606E0FFF7E2FC0C
:1016C000401B022801D9032041E7894808380068F7
:1016D000C0F340000028F1D1207800F0080008286D
:1016E0002CD16069A8B1012083490860FFF7CAFCCA
:1016F000054606E0FFF7C6FC401B022801D903207F
:1017000025E77B486C300068C0F340000028F1D02A
:1017100014E0002078490860FFF7B4FC054606E0B5
:10172000FFF7B0FC401B022801D903200FE77048E7
:101730006C300068C0F340000028F1D1207800F040
:10174000040004287FD100BF002000906848383092
:10175000006840F0805066493831086008460068EB
:1017600000F08050009000BF00BF6448006840F463
:10177000807062490860FFF785FC054606E0FFF7C8
:1017800081FC401B022801D90320E0E65B48006889
:1017900000F480700028F2D000BFA068012808D1B2
:1017A00053486830006840F00100514968310860D2
:1017B0001DE0A06805280DD14D486830006840F054
:1017C00004004B49683108600846006840F0010099
:1017D00008600CE046486830006820F00100444989
:1017E000683108600846006820F00400086000BF07
:1017F000A068A0B1FFF746FC054608E0FFF742FCF1
:10180000401B41F28831884201D903209FE63848C5
:1018100068300068C0F340000028EFD013E0FFF705
:1018200031FC054608E0FFF72DFC401B41F28831F2
:10183000884201D903208AE62D4868300068C0F349
:1018400040000028EFD1A069F0B32948006800F0FB
:101850000C00082871D0A069022858D10020254921
:101860000866FFF70FFC054606E0FFF70BFC401B80
:10187000022801D903206AE61D4808380068C0F331
:1018800040600028F1D1D4E90701084347F6C0724F
:1018900092FAA2F2B2FA82F2616A914008430122FE
:1018A000A16AC2EB51014FF4403292FAA2F2B2FAAD
:1018B00082F2914008434FF0706292FAA2F2B2FABB
:1018C00082F2E16A914000E039E008430849091FCB
:1018D0000860012007490866FFF7D4FB05460FE0C2
:1018E000FFF7D0FB401B02280AD903202FE6000097
:1018F0000838024000004742800E47420070004016
:1019000010480068C0F340600028E9D017E00020CC
:101910000D490866FFF7B6FB054606E0FFF7B2FB88
:10192000401B022801D9032011E606480068C0F3D5
:1019300040600028F2D102E0FFE7012007E6002026
:1019400005E60000003802400000474270B504463A
:101950000E4615460CB9012070BD94F8490028B90F
:10196000002084F84800204600F01CF804F108012B
:101970002068FEF7E9FE3146A2682068FEF712FFF4
:101980002946236BD4E90102FEF7BAFEA16820685C
:1019900050F8210040F00100A268216841F82200BF
:1019A0000020D9E710B50446FFF7EAF910BD042876
:1019B00008D14FF0E021096941F004014FF0E02225
:1019C000116107E04FF0E021096921F004014FF0B7
:1019D000E02211617047704770B504462546681EC5
:1019E000B0F1807F01D301200FE0681E4FF0E021AD
:1019F00048610F214FF0FF3001F036F900204FF021
:101A0000E021886107200861002070BD10B5FFF754
:101A1000E2FF10BD704700002DE9F0470446206842
:101A200005682068C668206847694FF00008C1460D
:101A300005F00F08B8F1000F0AD105F0200038B109
:101A400006F0200020B1204601F0E5FDBDE8F0875A
:101A5000B8F1000F6DD007F0010018B906F49070CE
:101A6000002866D005F0010030B106F4807018B18E
:101A7000E06B40F00100E06305F0040030B107F0D6
:101A8000010018B1E06B40F00200E06305F00200D5
:101A900030B107F0010018B1E06B40F00400E063E2
:101AA00005F0080030B107F0010018B1E06B40F01C
:101AB0000800E063E06B68B305F0200028B106F091
:101AC000200010B1204601F0A6FD20684069C0F357
:101AD0008019E06B00F0080010B9B9F1000F22D0B6
:101AE000204601F06EFD2068406900F04000B0B172
:101AF0002068406920F0400021684861606B50B167
:101B00001748616B0865606BFEF73CFF10B1606BB6
:101B1000016D88470CE02046FFF77CFF08E0204677
:101B2000FFF778FF04E02046FFF774FF0020E06332
:101B30008CE705F0800030B106F0800018B1204637
:101B400001F06AFF82E705F0400030B106F0400086
:101B500018B1204601F045FD78E700BF76E70000A8
:101B60001935000810B504460CB9012010BDA06954
:101B700000B100E000BF94F8390028B9002084F8D3
:101B80003800204600F028F8242084F83900206826
:101B9000C06820F400502168C860204601F088FD2C
:101BA0002068006920F4904021680861206840693D
:101BB00020F02A00216848612068C06840F4005085
:101BC0002168C8600020E063202084F8390084F890
:101BD0003A000020CAE7000010B586B00446474925
:101BE0002068884241D100BF00200090444800682E
:101BF00040F01000424908600846006800F01000FC
:101C0000009000BF00BF4FF4C0600190022002901E
:101C100001200390032004900720059001A9394872
:101C2000FFF722F93848394908604FF000604860F2
:101C3000002136488160C1604FF48061016100215C
:101C4000416181614FF48071C1610902016200212B
:101C50004162FEF7CFFF18B18D212DA001F05AFF90
:101C600000BF2A486063846300BF2D492068884212
:101C700041D100BF002000902148001F006840F4BF
:101C800000301F49091F08600846006800F4003052
:101C9000009000BF00BF0C200190022002900120A4
:101CA0000390032004900720059001A91548FFF731
:101CB000DBF81C481C4908604FF0006048600021B8
:101CC00019488160C1604FF4806101610021416168
:101CD0008161C1614FF40031016200214162FEF770
:101CE00089FF18B1B3210AA001F014FF00BF0E480C
:101CF0006063846300BF06B010BD000000100140A7
:101D0000443802400000024040640240BC10002001
:101D10002E2E2F5372632F75736172742E63000021
:101D200000440040886002405C11002077B581B01B
:101D30000446154694F83A00202850D1029800B184
:101D400015B9012004B070BD00BF94F83800012817
:101D500001D10220F6E7012084F8380000BF029884
:101D6000A062A5850020E063222084F83A001D4887
:101D7000616BC8630020616B08641B48616BC864B9
:101D80000020616B086502AE32682368191D2B467E
:101D9000606BFEF7A5FF00BF002000902068006880
:101DA000009020684068009000BF00BF00BF002086
:101DB00084F8380000BF2068C06840F48070216853
:101DC000C8602068406940F00100216848612068CF
:101DD000406940F04000216848610020B2E70220DD
:101DE000B0E700007D3500082D350008064A01687F
:101DF000914208D10121054A11700549C96841F491
:101E00000061034AD1607047004400402400002074
:101E1000006002402DE9F84304460D4616461F4671
:101E20004FF0000994F8390020285CD105B116B9AB
:101E30000120BDE8F88300BF94F83800012801D1E3
:101E40000220F6E7012084F8380000BF0020E0639C
:101E5000212084F83900FFF715F98146A684E6842D
:101E60002BE0E08C401EE084A068B0F5805F16D1C6
:101E70004B46002280212046009701F001FE08B168
:101E80000320D6E7A846B8F80000C0F30800216890
:101E90004860206908B9AD1C0FE06D1C0DE04B4691
:101EA000002280212046009701F0EAFD08B10320BE
:101EB000BFE715F8010B21684860E08C0028D0D1FD
:101EC0004B46002240212046009701F0D9FD08B181
:101ED0000320AEE7202084F8390000BF002084F8FA
:101EE000380000BFA5E70220A3E7704700BFFEE768
:101EF00010B5002202210C48FFF7BEF80022012194
:101F00000948FFF7B9F8142000F010F80122022167
:101F10000548FFF7B1F8142000F008F8002202216C
:101F20000148FFF7A9F810BD00180240002101E0A8
:101F30004A1C91B28142FBDB7047000010B50022C1
:101F400002210C48FFF798F8012211460948FFF7D3
:101F500093F81420FFF7EAFF012202210548FFF75A
:101F60008BF81420FFF7E2FF002202210148FFF75F
:101F700083F810BD0018024070B505460024012208
:101F800011461548FFF778F800261AE000220221D2
:101F90001148FFF771F81420FFF7C8FF0122022152
:101FA0000D48FFF769F86006040E01210A48FFF7A3
:101FB0005BF808B1601CC4B21420FFF7B7FF701CB7
:101FC000C6B2082EE2DB15B9FFF7B8FF01E0FFF754
:101FD0008FFF204670BD00000018024038B504464F
:101FE000002202211948FFF747F80020009027E05F
:101FF00004F0800028B1012211461448FFF73CF894
:1020000004E0002201211148FFF736F81420FFF701
:102010008DFF012202210D48FFF72EF81420FFF753
:1020200085FF002202210948FFF726F81420FFF758
:102030007DFF6006040E9DF80000401CC0B20090B9
:102040009DF800000828D3DB38BD000000180240CE
:1020500010B5012211460C48FFF70EF801220221AB
:102060000948FFF709F82820FFF760FF0022012147
:102070000548FFF701F82820FFF758FF002202214A
:102080000148FEF7F9FF10BD0018024010B500220C
:1020900001210C48FEF7F0FF002202210948FEF75B
:1020A000EBFF2820FFF742FF012211460548FEF70B
:1020B000E3FF012202210348FEF7DEFF2820FFF79D
:1020C00035FF10BD0018024008B500200090012225
:1020D00011461448FEF7D0FF0A20FFF727FF012220
:1020E00002211048FEF7C8FF0A20FFF71FFF0CE08F
:1020F000BDF80000401C80B20090BDF800001E2812
:1021000003DDFFF7C3FF012008BD01210548FEF7ED
:10211000ABFF0028ECD1002202210248FEF7ACFF01
:102120000020F1E70018024000B587B000BF002092
:1021300001902248006840F00800204908600846E5
:10214000006800F00800019000BF00BF4FF400508D
:10215000029001200390002004900120059002A924
:102160001748FEF781FE012251031548FEF784FF50
:1021700000BF002001901148006840F020000F4986
:1021800008600846006800F02000019000BF00BF12
:102190004FF4804002900120039000200490012021
:1021A000059002A90748FEF75FFE00224FF4804128
:1021B0000448FEF761FF07B000BD00003038024060
:1021C000000C02400014024010B5FFF7ADFF00F014
:1021D000BBF9FF2001F094FCFF2001F095FC982052
:1021E00001F092FC062001F08FFCBC2001F088FC7D
:1021F000032001F089FC0F2001F086FC632001F030
:1022000083FC692001F080FC012001F07DFC0120AD
:1022100001F07AFC1B2001F077FC112001F074FC26
:10222000702001F071FC732001F06EFCFF2001F0C2
:102230006BFCFF2001F068FC082001F065FC092020
:1022400001F062FC052001F05FFC002001F05CFC65
:10225000EE2001F059FCE22001F056FC012001F0D3
:1022600053FC002001F050FCC12001F04DFCBD20CA
:1022700001F046FC012001F047FC232001F044FC62
:10228000452001F041FC672001F03EFC012001F0F7
:102290003BFC232001F038FC452001F035FC672091
:1022A00001F032FCBE2001F02BFC002001F02CFCE0
:1022B000222001F029FC272001F026FC6A2001F0F1
:1022C00023FCBC2001F020FCD82001F01DFC922052
:1022D00001F01AFC222001F017FC222001F014FC6E
:1022E000C72001F00DFC8F2001F00EFC802001F0D2
:1022F0000BFCED2001F004FC7F2001F005FC0F2019
:1023000001F002FCC02001F0FBFBC72001F0FCFB48
:102310000B2001F0F9FB022001F0F6FB002001F098
:10232000F3FB002001F0F0FB882001F0EDFB2C20F6
:1023300001F0EAFB502001F0E7FB002001F0E4FB94
:10234000002001F0E1FB002001F0DEFB002001F0A5
:10235000DBFBFF2001F0D8FBFC2001F0D1FB0420C7
:1023600001F0D2FBDF2001F0CBFB002001F0CCFB21
:10237000002001F0C9FB002001F0C6FB002001F0A5
:10238000C3FB002001F0C0FB202001F0BDFBF320C7
:1023900001F0B6FB742001F0B7FBB42001F0B0FBF4
:1023A000002001F0B1FB002001F0AEFB002001F0A5
:1023B000ABFBF72001F0A4FB812001F0A5FBB120CD
:1023C00001F09EFB002001F09FFB102001F09CFB20
:1023D000142001F099FBF12001F092FB292001F07B
:1023E00093FB8A2001F090FB072001F08DFBF22087
:1023F00001F086FB402001F087FBD22001F084FB36
:10240000502001F081FB282001F07EFBC12001F06B
:1024100077FB172001F078FB852001F075FB852004
:1024200001F072FB202001F06FFBE02001F068FB5F
:10243000002001F069FB0C2001F066FB152001F083
:1024400063FB0D2001F060FB0F2001F05DFB0C2011
:1024500001F05AFB072001F057FB052001F054FB67
:10246000072001F051FB0B2001F04EFB102001F082
:102470004BFB102001F048FB0D2001F045FB17201D
:1024800001F042FB0F2001F03FFB002001F03CFB7C
:10249000E12001F035FB002001F036FB0D2001F0BA
:1024A00033FB152001F030FB0E2001F02DFB102036
:1024B00001F02AFB0D2001F027FB082001F024FB8E
:1024C000062001F021FB072001F01EFB0C2001F08B
:1024D0001BFB112001F018FB112001F015FB0E2051
:1024E00001F012FB172001F00FFB0F2001F00CFB95
:1024F000002001F009FB352001F002FB002001F073
:1025000003FB362001F0FCFAA02001F0FDFA3A208E
:1025100001F0F6FA552001F0F7FA112001F0F0FA77
:10252000782000F08FF8292001F0EAFA0A2000F064
:1025300089F8012291030348FEF79EFD0F2000F069
:102540000DF910BD0014024010B500224FF40051E7
:102550000748FEF791FD0A2000F074F801225103AC
:102560000348FEF789FD022000F06CF810BD000062
:10257000000C02402DE9FC5F80460D4616461C46C5
:10258000AB462C48008801902046E21704EB5272BB
:10259000D21002FB04F101EBD172C2F34F020092A0
:1025A000A6F12000C6B200273CE0202C05D122482D
:1025B00000EB861010F8079006E0402C04D11F486D
:1025C00000EB062010F807904FF0000A24E009F015
:1025D000800018B117490198088003E01848008866
:1025E000144908801348028829464046FEF7BCF982
:1025F0004FF6FF7000EA4909681C85B2A5EB0B0095
:10260000A04205D15D4608F101001FFA80F806E0FE
:102610000AF101001FFA80FABAF1080FD7DB00BFF8
:10262000781C87B200988742BFDB02490198088076
:10263000BDE8FC9F140000209C8201085C9A010800
:102640001600002008B50CE04FF4E151009104E0C1
:10265000BDF80010491E89B20091BDF80010002994
:10266000F6DC0100A0F10102D0B2EDD108BD10B539
:1026700047F6E02000F072F810BD000008B50748EA
:102680003A231A460A210090084600F037F804A2BF
:102690004E210A2000F00AF808BD00005468010825
:1026A000737065637472756D000000002DE9F05F52
:1026B0000746884616464FF00009002400200E49C0
:1026C0000880BA46C346A6B135462846FDF778FDD0
:1026D00000F0FF0900BF0AE02A780AEB441188B233
:1026E00020235946FFF746FF6D1C601CC4B24C45C1
:1026F000F2DBBDE8F09F0000140000202DE9F05F40
:102700008046894615461E46DDF828A0002700248D
:10271000A34605FB06F04FEA400B09EB0600401EFE
:1027200083B208EB0500401E82B24946404600F0E5
:1027300075F800BF601C1AF800704FF6FF7000EAD1
:1027400007271AF80400074303480780A41C5C45C8
:10275000F0DBBDE8F09F00000000026070B50446A9
:1027600040F2DF1340F255320021084600F056F8DF
:1027700000250AE0002603E006480480701C86B2AB
:10278000B6F5F07FF8DB681C85B240F25630854222
:10279000F0DB70BD000002602DE9F04F06460F46E9
:1027A00014461D46A64203DAA01B1FFA80F902E078
:1027B000301B1FFA80F9AF4203DAE81B1FFA80FAD8
:1027C00002E0781B1FFA80FA681E83B2601E82B294
:1027D0003946304600F022F84FF000080FE04FF085
:1027E000000B06E00C49099808800BF101001FFA64
:1027F00080FBD345F6DB08F101001FFA80F8C845DD
:10280000EDDB40F2DF1340F255320021084600F0C4
:1028100005F8BDE8F08F0000000002602DE9F043EC
:1028200004460D46944202DC2646174601E0164651
:1028300027469D4202DCA846994601E09846A946F3
:102840002A2001F05DF9301201F05EF9F0B201F0DA
:102850005BF9381201F058F9F8B201F055F92B2064
:1028600001F04EF94FEA282001F04EF908F0FF0080
:1028700001F04AF94FEA292001F046F909F0FF007A
:1028800001F042F92C2001F03BF9BDE8F08300B5DE
:1028900002460B462A2001F033F9101201F034F9F8
:1028A000D0B201F031F92B2001F02AF9181201F011
:1028B0002BF9D8B201F028F92C2001F021F900BD44
:1028C00008B500BF002000901648006840F4800062
:1028D000144908600846006800F48000009000BFBA
:1028E00000BF00BF002000900846006840F40010C0
:1028F00008600846006800F40010009000BF00BFA8
:10290000012202213A20FEF735FC3A20FEF725FC91
:10291000012211461020FEF72DFC1020FEF71DFCB1
:1029200008BD00003038024000B587B04FF02040AD
:10293000194908601948486000208860002116483D
:10294000C16001611021416100218161C1610162A9
:1029500041624FF4805181620021C1620163416391
:1029600081634164022000900F20019001200290B9
:102970000020039010200490112005900020069064
:10298000002269460448FEF7E1FF18B1562104A071
:1029900001F0C0F807B000BDBC110020040100A088
:1029A0002E2E2F5372632F66736D632E630000000B
:1029B00000B587B000BF002001906C48006840F06F
:1029C00010006A4908600846006800F01000019095
:1029D00000BF00BF00BF002001900846006840F023
:1029E000040008600846006800F00400019000BF81
:1029F00000BF00BF002001900846006840F02000A2
:102A000008600846006800F02000019000BF00BF89
:102A100000BF002001900846006840F08000086078
:102A20000846006800F08000019000BF00BF00BFB2
:102A3000002001900846006840F002000860084647
:102A4000006800F00200019000BF00BF00BF00203E
:102A500001900846006840F00800086008460068D9
:102A600000F00800019000BF00BF00BF00200190EF
:102A70000846006840F0400008600846006800F022
:102A80004000019000BF00BF00BF00200190084639
:102A9000006840F0010008600846006800F001008E
:102AA000019000BF00BF002243F601013048FEF74D
:102AB000E3FA002241F202012E48FEF7DDFA0F2070
:102AC0000290002003900120049002A92A48FEF7FA
:102AD000CBF9012002900390002004900320059080
:102AE00002A92348FEF7C0F90220029001200390BA
:102AF000002004900120059002A91E48FEF7B4F9B9
:102B00004FF46050029001200390002004900120B7
:102B1000059002A91648FEF7A7F94FF480500290DD
:102B200001200390002004900320059002A9114881
:102B3000FEF79AF94FF460400290022003900020C3
:102B40000490032005900520069002A90948FEF78D
:102B50008BF94FF480700290084803900020049095
:102B600002A90748FEF780F907B000BD30380240DF
:102B70000014024000040240001002400000311026
:102B80000018024010B5002208211720FEF7F2FAC3
:102B90001720FEF7E2FA002203212520FEF7EAFAC9
:102BA0002520FEF7DAFA002204212620FEF7E2FAB9
:102BB0002620FEF7D2FA10BD10B50C480C4908606B
:102BC0004FF416504860002109488160C1600161DE
:102BD0000C21416100218161C161FEF7C3FF18B181
:102BE0004F2104A000F096FF10BD0000001001402E
:102BF0007C1000202E2E2F5372632F757361727418
:102C00002E63000010B50C480C4908604FF41650B4
:102C10004860002109488160C16001610C21416167
:102C200000218161C161FEF79DFF18B1642104A0FC
:102C300000F070FF10BD0000004400401C11002097
:102C40002E2E2F5372632F75736172742E630000E2
:102C500000BFFEE77047000002480068C0F3022092
:102C6000704700000CED00E010B5002807DA0A07F5
:102C7000140E054A00F00F031B1FD45403E00A078B
:102C8000130E024A135410BD18ED00E000E400E0FA
:102C900008B5002040F2DF1340F255324FF4D771EF
:102CA00000901720FFF778FD08BD08B500204FF40D
:102CB000D27340F23732142100901720FFF76CFDD9
:102CC00008BD000010B50020074908804FF6FF70CE
:102CD000064908800020FFF741FD05A32022F021CE
:102CE000642000F07FF810BD1600002014000020C2
:102CF000506C6561736520636C69636B20616E79EC
:102D0000776865726520746F2073746172742073C4
:102D1000616D706C6521000010B5002008490880C5
:102D20004FF6FF70074908800020FFF717FD06A344
:102D30002022C8214FF4967000F054F810BD000016
:102D4000160000201400002053616D706C696E67DE
:102D5000000000002DE9F04106460C460025002742
:102D60004FF00108CCB12546B04613E0C82308FB5C
:102D700003F11731C7F102034FF0100C0CFB1311D4
:102D800088B22A7820234FF4D771FFF7F3FB6D1C2C
:102D9000781CC7B228780028E8D1BDE8F0812DE979
:102DA000F84F05460E4617460024A846B146BA46D7
:102DB00000BF13E0C9F5D2734FEA880117312144EF
:102DC0008AB24FEA88011731214488B24FF4D27198
:102DD000CDF800A0FDF768FD601CC4B2042CE9DB4F
:102DE000BDE8F88F2DE9FE4F0746884691461D46FF
:102DF000002600200190FDB12E46BA46CDF808808D
:102E0000CDF804903046FDF7DBF900F0FF0B00240D
:102E100010E001996143009101EBD1710AEB61016E
:102E200088B20199CBB232780299FFF7A3FB761CE6
:102E3000601CC4B25C45ECDBBDE8FE8F10B5002021
:102E4000214908804FF6FF7020490880FFF720FFD6
:102E50001F4890F90000042830DC1D4890F900005C
:102E6000002202EB80001B4A52F820100120FFF7DD
:102E700071FF174890F90000012202EB8000154A0B
:102E800052F820100220FFF765FF114890F900006A
:102E9000022202EB80000F4A52F820100320FFF7B5
:102EA00059FF0B4890F90000032202EB8000094A09
:102EB00052F820100420FFF74DFF04E00548016D93
:102EC0000120FFF747FF10BD16000020140000206E
:102ED0001A000020280000202DE9F04105460E468A
:102EE0000024FFF7E2FEA8461C4890F900000428E1
:102EF00015DC00BF10E0194890F9000000EBC0019C
:102F000001EB001004EBC000375C42463946204616
:102F1000FFF745FF601CC4B2C82CECDB1BE0104877
:102F200090F8F01F42460020FFF739FF0C4890F858
:102F3000F41F42460020FFF732FF094890F8F81FBF
:102F400042460020FFF72BFF054890F8FC1F424641
:102F50000020FFF724FFBDE8F08100001A000020E8
:102F60007C00002038B500240DE04FF6FF70009083
:102F700004F5D27083B281B240F255321720FDF7CA
:102F800093FC601C84B2052CEFDB00240FE04FF6AD
:102F9000FF70C4F117018AB2C4F11701009088B222
:102FA00000234FF4D471FDF77FFC601C84B2052C24
:102FB000EDDB00240EE04FF6FF70009004F10800F6
:102FC00083B2C4F10D0082B2A1B21420FDF76CFCF3
:102FD000601C84B2082CEEDB00240DE04FF6FF707D
:102FE000009004F1080083B2193082B2A1B214201B
:102FF000FDF75AFC601C84B2082CEFDB002412E0C1
:103000004FF6FF70C4F5D9718BB204F23F318AB22A
:1030100040F25531091B009088B24FF4D371FDF78F
:1030200043FC601C84B20C2CEADB002412E04FF657
:10303000FF7004F5CD718BB204F23F318AB240F2D9
:103040005531091B009088B24FF4D371FDF72CFC69
:10305000601C84B20C2CEADB012449E04FF6FF70BF
:10306000C82304FB03F114318AB204FB03F11431C9
:10307000009088B24FF4D9734FF4D471FDF714FC6B
:103080004FF6FF70C82304FB03F115318AB204FB2D
:1030900003F11531009088B24FF4D9734FF4D47115
:1030A000FDF702FC4FF6FF70C82304FB03F1163155
:1030B0008AB204FB03F11631009088B24FF4D97341
:1030C0004FF4D471FDF7F0FB4FF6FF70C82304FBFB
:1030D00003F117318AB204FB03F11731009088B273
:1030E0004FF4D9734FF4D471FDF7DEFB601C84B24A
:1030F000042CB3DD012451E04FF6FF70009004EB87
:1031000084000001C0F5D270C01E83B204EB8400BD
:103110000001C0F5D270C01E81B20E221320FDF74F
:10312000C3FB4FF6FF70009004EB84000001C0F574
:10313000D17083B204EB84000001C0F5D17081B27C
:103140000E221320FDF7B0FB4FF6FF70009004EB4A
:1031500084000001C0F5D270401E83B204EB8400ED
:103160000001C0F5D270401E81B20E221320FDF77F
:103170009BFB4FF6FF70009004EB84000001C0F54C
:10318000D27083B204EB84000001C0F5D27081B22A
:103190000E221320FDF788FB601C84B2052CABDDEA
:1031A000184890F90000002202EB8000164A52F8FD
:1031B00020100120FFF7CEFD124890F900000122F7
:1031C00002EB8000104A52F820100220FFF7C2FDE7
:1031D0000C4890F90000022202EB80000A4A52F8E3
:1031E00020100320FFF7B6FD064890F900000322E7
:1031F00002EB8000044A52F820100420FFF7AAFDD9
:1032000038BD00001A0000202800002070B50546D7
:103210000E460024FFF7A6FE00BF06E0315D2A46F9
:103220002046FFF7BCFD601C84B2C82CF6DB70BDE5
:10323000704700003EB504462088614908806088D8
:103240004880207908712089088160894881072198
:103250006846FDF7C9FA9DF8020000F00F0001284A
:1032600038D19DF8030000F00F00208020884FF631
:10327000FF7101EA0020208020889DF80410084496
:103280002080208840F25631884204DA2088081ACB
:10329000401E208001E0002020809DF8050000F005
:1032A0000F00608060884FF6FF7101EA00206080A7
:1032B00060889DF80610084460806088B0F5F07F53
:1032C00005DA6088C0F5F070401E608006E00020DE
:1032D000608003E040F6FF7020806080384800790D
:1032E00068B9208840F6FF71884205D1608888421D
:1032F00002D10020207129E00120207126E0304811
:103300000079012803D02E48007902280DD12088A9
:1033100040F6FF71884205D16088884202D10320BF
:10332000207113E00220207110E025480079032865
:103330000CD1208840F6FF71884205D16088884210
:1033400002D10020207101E00120207120790228A3
:1033500030D120881A490988401A00B2208120897A
:1033600010B9002060710CE0B4F90800002802DDFB
:103370000220607105E0B4F90800002801DA01209C
:10338000607160880E494988401A00B26081608986
:1033900010B90020A07112E0B4F90A00002802DD83
:1033A0000220A0710BE0B4F90A00002807DA01201E
:1033B000A07104E000206071A071208160813EBD99
:1033C000821A0020704710B5FDF762FEFEF71EFB63
:1033D00010BD000010B592B000BF002000902F4833
:1033E000006840F080502D4908600846006800F0F1
:1033F0008050009000BF00BF00BF00200090284810
:10340000006840F48040264908600846006800F4DF
:103410008040009000BF00BF01200690000407908C
:1034200002200C9041050D9108210E914FF4A871D6
:103430000F91022110910421119106A8FEF760F866
:1034400018B1C42117A000F065FB0F2001900220E5
:103450000290002003904FF4A05004904FF480504D
:103460000590052101A8FDF7D7FE18B1D2210DA0C6
:1034700000F050FBFDF7B8FF4FF47A71B0FBF1F4A8
:103480002046FEF7A9FA0420FEF791FA0022114621
:10349000501EFDF76FFE12B010BD00004038024014
:1034A000007000402E2E2F5372632F6D61696E2EB7
:1034B000630000001448006840F47000124908607E
:1034C0001248006840F001001049086000200F49D0
:1034D000083108600D4800680D4908400B49086034
:1034E0000C48091D0860081F006820F48020091F8F
:1034F0000860002005490C3108604FF00060024967
:10350000803908607047000088ED00E00038024014
:10351000FFFFF6FE1030002470B50546AC6B0020AE
:10352000E085E0842046FEF775FA70BD70B506466A
:103530000025B46B20684069C0F3C01594F83900C9
:10354000212805D125B10020E084204600F059F85B
:1035500020684069C0F3801594F83A00222805D10C
:1035600025B10020E085204600F02BF8E06B40F00C
:103570001000E0632046FEF74DFA70BD70B50546B9
:10358000AC6B2868006800F48070B0B90020E0855A
:103590002068C06820F480702168C8602068406995
:1035A00020F00100216848612068406920F0400057
:1035B00021684861202084F83A002046FEF716FC76
:1035C00070BD0168C96821F490710268D16001681A
:1035D000496921F0010102685161202180F83A1007
:1035E000704710B504462068C06820F0400021688C
:1035F000C860202084F839002046FEF776FC0020C1
:1036000010BD0168C96821F0C0010268D1602021A5
:1036100080F83910704770B5044694F83A002228B3
:1036200044D1A068B0F5805F13D1A56A206940B984
:1036300020684068C0F308002880A06A801CA0624F
:1036400019E020684068C0B22880A06A401CA062CF
:1036500011E0206938B920684068C1B2A26A501CE4
:10366000A062117007E02068406800F07F01A26A44
:10367000501CA0621170E08D401E80B2E08598B9A8
:103680002068C06820F490702168C8602068406994
:1036900020F0010021684861202084F83A0020468B
:1036A000FEF7A4FB002070BD0020FCE70220FAE733
:1036B0002DE9F041044600252068056925F44055B0
:1036C000E0680543206805612068C56849F20C6020
:1036D00085432169A068084361690843E16908439B
:1036E00005432068C5602068456925F44075A069D8
:1036F000054320684561E069B0F5004F7ED1C449BB
:103700002068884203D0C349206888425DD1FDF714
:1037100087FE00EBC00101EB001061684900B0FBBF
:10372000F1F06421B0FBF1F00601FDF779FE00EB4A
:10373000C00101EB001061684900B0FBF1F7FDF733
:103740006FFE00EBC00101EB001061684900B0FBA7
:10375000F1F06421B0FBF1F000EBC00101EB0010CF
:10376000A7EB8000322101EBC0006421B0FBF1F037
:1037700000F0F80006EB4006FDF752FE00EBC0013A
:1037800001EB001061684900B0FBF1F7FDF748FE5E
:1037900000EBC00101EB001061684900B0FBF1F0E3
:1037A0006421B0FBF1F000EBC00101EB0010A7EBCE
:1037B0008000322101EBC0006421B0FBF1F000F089
:1037C000070030442168886020E1FDF713FE00EB1C
:1037D000C00101EB001061684900B0FBF1F0642109
:1037E000B0FBF1F00601FDF705FE00EBC00101EBB7
:1037F000001061684900B0FBF1F700E045E0FDF71B
:10380000F9FD00EBC00101EB001061684900B0FB5D
:10381000F1F06421B0FBF1F000EBC00101EB00100E
:10382000A7EB8000322101EBC0006421B0FBF1F076
:1038300000F0F80006EB4006FDF7DCFD00EBC001F0
:1038400001EB001061684900B0FBF1F7FDF7D2FD14
:1038500000EBC00101EB001061684900B0FBF1F022
:103860006421B0FBF1F000EBC00101EB0010A7EB0D
:103870008000322101EBC0006421B0FBF1F000F0C8
:103880000700304421688860C0E0614920688842B0
:1038900003D06049206888425CD1FDF7C1FD00EB90
:1038A000C00101EB001061688900B0FBF1F6FDF783
:1038B000B7FD00EBC00101EB001061688900B0FBAF
:1038C000F1F06421B0FBF1F000EBC00101EB00105E
:1038D000A6EB8000322101EB00106421B0FBF1F077
:1038E00000F0F006FDF79CFD00EBC00101EB0010BD
:1038F00061688900B0FBF1F06421B0FBF1F006EBE8
:103900000016FDF78DFD00EBC00101EB00106168B2
:103910008900B0FBF1F7FDF783FD00EBC00101EB7F
:10392000001061688900B0FBF1F06421B0FBF1F098
:1039300000EBC00101EB0010A7EB8000322101EB8E
:1039400000106421B0FBF1F000F00F00304421685A
:1039500088605BE0FDF74EFD00EBC00101EB00105D
:1039600061688900B0FBF1F6FDF744FD00EBC00192
:1039700001EB001061688900B0FBF1F06421B0FB3D
:10398000F1F000EBC00101EB0010A6EB800032214A
:1039900001EB00106421B0FBF1F000F0F006FDF740
:1039A00029FD00EBC00101EB001061688900B0FB4C
:1039B000F1F06421B0FBF1F006EB0016FDF71AFD03
:1039C00000EBC00101EB001061688900B0FBF1F76A
:1039D000FDF710FD00EBC00101EB001061688900EC
:1039E000B0FBF1F06421B0FBF1F000EBC00101EBA2
:1039F0000010A7EB8000322101EB00106421B0FB26
:103A0000F1F000F00F00304421688860BDE8F081DB
:103A10000010014000140140014691F839002128AE
:103A20002CD18868B0F5805F0FD10A6A1088C0F386
:103A300008000B685860086918B9086A801C086299
:103A400009E0086A401C086205E00B6A581C08621D
:103A500018780B685860C88C401E80B2C88458B96A
:103A60000868C06820F080000B68D8600868C068EB
:103A700040F040000B68D860002070470220FCE74F
:103A80002DE9F04104460D4617469846069E21E072
:103A9000701CF8B12EB1FDF7F5FAA0EB0800B042AA
:103AA00018D92068C06820F4D0702168C8602068E8
:103AB000406920F0010021684861202084F8390025
:103AC00084F83A0000BF002084F8380000BF0320CB
:103AD000BDE8F081206800682840A84201D101209B
:103AE00000E00020B842D3D00020F1E710B5024832
:103AF000FDF792FF10BD00007C10002000BFFEE724
:103B00004FF0C041088070470149088070470000AD
:103B10000000026000BFFEE702E008C8121F08C1F3
:103B2000002AFAD170477047002001E001C1121F3E
:103B3000002AFBD1704730B50446002504E04FF45D
:103B40007A7000F005F86D1CA542F8D330BD000076
:103B500070B5034600224FF0E02675690D4E3668B9
:103B600003FB06F44FF0E026B16910E04FF0E026C9
:103B7000B06988420BD0884202D20E1A324402E069
:103B80002E1A0E4432440146A24200D300E0EDE773
:103B900000BF70BD1C000020FDF782FAFFF71AFC81
:103BA000FEF706FFFEF78CFEFFF706F8FFF72AF890
:103BB0001348FEF711F81348FEF70EF8FEF7B4FEAF
:103BC000FEF7E0FFFCF740FEFEF7FEFA0020FEF7EE
:103BD000C5FD0D48007830B9FEF749FDFEF74EFDF2
:103BE00001200949087009E00848FFF723FBFCF7AA
:103BF000F5FB00F00DF80A20FFF79DFFF4E7000049
:103C00001C1100207C1000201900002070160020DC
:103C100010B50748FFF70EFB05E00548FFF70AFB64
:103C20000A20FFF788FF024800790028F5D110BD6F
:103C300070160020000000000000000001020304D4
:103C40000607080900000000010203040006101620
:103C500000061016831001000000000000000000A4
:103C60000000000000000000000000000000000054
:103C70000000000000000000000000000000000044
:103C80000000000000000000000000000000000034
:103C90000000000000000000000000000000000024
:103CA0000000000000000000000000000000000014
:103CB0000000000000000000000000000000000004
:103CC00000000000000000000000000000000000F4
:103CD00000000000000000000000000000000000E4
:103CE00000000000000000000000000000000000D4
:103CF00000000000000000000000000000000000C4
:103D000000000000000000000000000000000000B3
:103D100000000000000000000000000000000000A3
:103D20000000000000000000000000000000000093
:103D30000000000000000000000000000000000083
:103D40000000000000000000000000000000000073
:103D50000000000000000000000000000000000063
:103D60000000000000000000000000000000000053
:103D70000000000000000000000000000000000043
:103D80000000000000000000000000000000000033
:103D900000000000420800000000000000000000D9
:103DA0000000000000000000000000000000000013
:103DB0000000000000000000000000000000000003
:103DC00000000000000000000000000000000000F3
:103DD00000000000000000000000000000000000E3
:103DE00000000000000000000000000000000000D3
:103DF00000000000000000000000000000000000C3
:103E000000000000000000000000000000000000B2
:103E100000000000000000000000000000000000A2
:103E20000000000000000000000000000000000092
:103E30000000000000000000000000000000000082
:103E40000000000000000000000000000000000072
:103E50000000000000000000000000000000000062
:103E60000000000000000000000000000000000052
:103E70000000000000000000000000000000000042
:103E80000000000000000000000000000000000032
:103E90000000000000000000000000000000000022
:103EA0000000000000000000000000000000000012
:103EB0000000000000000000000000000000000002
:103EC00000000000000000000000000000000000F2
:103ED0000000000042080000000000000000000098
:103EE00000000000000000000000000000000000D2
:103EF00000000000000000000000000000000000C2
:103F000000000000000000000000000000000000B1
:103F100000000000000000000000000000000000A1
:103F20000000000000000000000000000000000091
:103F30000000000000000000000000000000000081
:103F40000000000000000000000000000000000071
:103F50000000000000000000000000000000000061
:103F60000000000000000000000000000000000051
:103F70000000000000000000000000000000000041
:103F80000000000000000000000000000000000031
:103F90000000000000000000000000000000000021
:103FA0000000000000000000000000000000000011
:103FB0000000000000000000000000000000000001
:103FC00000000000000000000000000000000000F1
:103FD00000000000000000000000000000000000E1
:103FE00000000000000000000000000000000000D1
:103FF00000000000000000000000000000000000C1
:1040000000000000000000000000000000000000B0
:104010000000000063080100000000000000000034
:104020000000000000000000000000000000000090
:104030000000000000000000000000000000000080
:104040000000000000000000000000000000000070
:104050000000000000000000000000000000000060
:104060000000000000000000000000000000000050
:104070000000000000000000000000000000000040
:104080000000000000000000000000000000000030
:104090000000000000000000000000000000000020
:1040A0000000000000000000000000000000000010
:1040B0000000000000000000000000000000000000
:1040C00000000000000000000000000000000000F0
:1040D00000000000000000000000000000000000E0
:1040E00000000000000000000000000000000000D0
:1040F00000000000000000000000000000000000C0
:1041000000000000000000000000000000000000AF
:10411000000000000000000000000000000000009F
:10412000000000000000000000000000000000008F
:10413000000000000000000000000000000000007F
:10414000000000000000000000000000000000006F
:1041500000000000831001000000000000000000CB
:10416000000000000000000000000000000000004F
:10417000000000000000000000000000000000003F
:10418000000000000000000000000000000000002F
:10419000000000000000000000000000000000001F
:1041A000000000000000000000000000000000000F
:1041B00000000000000000000000000000000000FF
:1041C00000000000000000000000000000000000EF
:1041D00000000000000000000000000000000000DF
:1041E00000000000000000000000000000000000CF
:1041F00000000000000000000000000000000000BF
:1042000000000000000000000000000000000000AE
:10421000000000000000000000000000000000009E
:10422000000000000000000000000000000000008E
:10423000000000000000000000000000000000007E
:10424000000000000000000000000000000000006E
:10425000000000000000000000000000000000005E
:10426000000000000000000000000000000000004E
:10427000000000000000000000000000000000003E
:10428000000000000000000000000000000000002E
:10429000000000008310010000000000000000008A
:1042A000000000000000000000000000000000000E
:1042B00000000000000000000000000000000000FE
:1042C00000000000000000000000000000000000EE
:1042D00000000000000000000000000000000000DE
:1042E00000000000000000000000000000000000CE
:1042F00000000000000000000000000000000000BE
:1043000000000000000000000000000000000000AD
:10431000000000000000000000000000000000009D
:10432000000000000000000000000000000000008D
:10433000000000000000000000000000000000007D
:10434000000000000000000000000000000000006D
:10435000000000000000000000000000000000005D
:10436000000000000000000000000000000000004D
:10437000000000000000000000000000000000003D
:10438000000000000000000000000000000000002D
:10439000000000000000000000000000000000001D
:1043A000000000000000000000000000000000000D
:1043B00000000000000000000000000000000000FD
:1043C00000000000000000000000000000000000ED
:1043D000000000008310000000000000000000004A
:1043E00000000000000000000000000000000000CD
:1043F00000000000000000000000000000000000BD
:1044000000000000000000000000000000000000AC
:10441000000000000000000000000000000000009C
:10442000000000000000000000000000000000008C
:10443000000000000000000000000000000000007C
:10444000000000000000000000000000000000006C
:10445000000000000000000000000000000000005C
:10446000000000000000000000000000000000004C
:10447000000000000000000000000000000000003C
:10448000000000000000000000000000000000002C
:10449000000000000000000000000000000000001C
:1044A000000000000000000000000000000000000C
:1044B00000000000000000000000000000000000FC
:1044C00000000000000000000000000000000000EC
:1044D00000000000000000000000000000000000DC
:1044E00000000000000000000000000000000000CC
:1044F00000000000000000000000000000000000BC
:1045000000000000000000000000000000000000AB
:104510000000000083100100000000000000000007
:10452000000000000000000000000000000000008B
:10453000000000000000000000000000000000007B
:10454000000000000000000000000000000000006B
:10455000000000000000000000000000000000005B
:10456000000000000000000000000000000000004B
:10457000000000000000000000000000000000003B
:10458000000000000000000000000000000000002B
:10459000000000000000000000000000000000001B
:1045A000000000000000000000000000000000000B
:1045B00000000000000000000000000000000000FB
:1045C00000000000000000000000000000000000EB
:1045D00000000000000000000000000000000000DB
:1045E00000000000000000000000000000000000CB
:1045F00000000000000000000000000000000000BB
:1046000000000000000000000000000000000000AA
:10461000000000000000000000000000000000009A
:10462000000000000000000000000000000000008A
:10463000000000000000000000000000000000007A
:10464000000000000000000000000000000000006A
:1046500000000000831000000000000000000000C7
:10466000000000000000000000000000000000004A
:10467000000000000000000000000000000000003A
:10468000000000000000000000000000000000002A
:10469000000000000000000000000000000000001A
:1046A000000000000000000000000000000000000A
:1046B00000000000000000000000000000000000FA
:1046C00000000000000000000000000000000000EA
:1046D00000000000000000000000000000000000DA
:1046E00000000000000000000000000000000000CA
:1046F00000000000000000000000000000000000BA
:1047000000000000000000000000000000000000A9
:104710000000000000000000000000000000000099
:104720000000000000000000000000000000000089
:104730000000000000000000000000000000000079
:104740000000000000000000000000000000000069
:104750000000000000000000000000000000000059
:104760000000000000000000000000000000000049
:104770000000000000000000000000000000000039
:104780000000000000000000000000000000000029
:104790000000000082100000000000000000000087
:1047A0000000000000000000000000000000000009
:1047B00000000000000000000000000000000000F9
:1047C00000000000000000000000000000000000E9
:1047D00000000000000000000000000000000000D9
:1047E00000000000000000000000000000000000C9
:1047F00000000000000000000000000000000000B9
:1048000000000000000000000000000000000000A8
:104810000000000000000000000000000000000098
:104820000000000000000000000000000000000088
:104830000000000000000000000000000000000078
:104840000000000000000000000000000000000068
:104850000000000000000000000000000000000058
:104860000000000000000000000000000000000048
:104870000000000000000000020022000100010012
:104880000000000000000000000000000000000028
:104890000000000000000000000000000000000018
:1048A0000000000000000000000000000000000008
:1048B00000000000000000000000000000000000F8
:1048C00000000000000000000000000000000000E8
:1048D000000000004108000000000000000000008F
:1048E00000000000000000000000000000000000C8
:1048F00000000000000000000000000000000000B8
:1049000000000000000000000000000000000000A7
:104910000000000000000000000000000000000097
:104920000000000000000000000000000000000087
:104930000000000000000000000000000000000077
:104940000000000021002100000000000000210004
:1049500021002100000021002100010020080000AA
:104960000000000000000000000000000000000047
:104970000000000000000000000000000000000037
:1049800000000000000000002000200000000000E7
:104990000000000000000000000000000000000017
:1049A0000000000000000000000000000000000007
:1049B0000000000000000100440045004400220007
:1049C00001000000000000000000000000000000E6
:1049D00000000000000000000000000000000000D7
:1049E00000000000000000000000000000000000C7
:1049F00000000000000000000000000000000000B7
:104A000000000000000000000000000000000000A6
:104A10000000000000000000000000000000000096
:104A20000000000000000000000000000000000086
:104A30000000000000000000000000000000000076
:104A40000000000000000000000000000000000066
:104A50000000000000000000000000000000000056
:104A60000000000000000000000000000000000046
:104A70000000000000000000000000000000000036
:104A800001000100220822000100210001000100B4
:104A900025214521000021004200210020000000C6
:104AA0000000000000000000000000000000000006
:104AB00000000000000000000000000000000000F6
:104AC00000000000010001000100010000000000E2
:104AD00001000100000000000000000000000000D4
:104AE00000000000000000000000000000000000C6
:104AF0000000000000000100440066088600440039
:104B000002000100000000000000000000000000A2
:104B10000000000000000000000000000000000095
:104B20000000000000000000000000000000000085
:104B30000000000000000000000000000000000075
:104B40000000000000000000000000000000000065
:104B50000000000000000000000000000000000055
:104B60000000000000000000000000000000000045
:104B70000000000000000000000000000000000035
:104B80000000000000000000000000000000000025
:104B90000000000000000000000000000000000015
:104BA0000000000000000000000000000000000005
:104BB00000000000000000000000000000000000F5
:104BC0000100220043086308220022002200061987
:104BD0005AB659B6830867210D53E510210001002C
:104BE00000000000000000000000000000000000C5
:104BF00000000000000000000000000000000100B4
:104C00000100010001000200220022000200010058
:104C10000000000000000000000000000000000094
:104C20000000000000000000000000000000000084
:104C300000000000000001002500670087088608CA
:104C4000230002000000000000000000000000003F
:104C50000000000000000000000000000000000054
:104C60000000000000000000000000000000000044
:104C70000000000000000000000000000000000034
:104C80000000000000000000000000000000000024
:104C90000000000000000000000000000000000014
:104CA0000000000000000000000000000000000004
:104CB00000000000000000000000000000000000F4
:104CC00000000000000000000000000000000000E4
:104CD00000000000000000000000000000000000D4
:104CE00000000000000000000000000000000000C4
:104CF00000000000000000000000000000000000B4
:104D0000220023004B42ED52210021004300705B42
:104D1000FDB61DB72611546C3DCFF58C620800001E
:104D20000000000000000000000000000000000083
:104D30000000000000000000000000000100220050
:104D4000020022004300C510EA31E618020001000B
:104D50002000200000000000000000000000000013
:104D60000000000000000000000000000000000043
:104D7000000000000000010025006800A808870866
:104D800024000200010000000000000000000000FC
:104D90000000000000000000000000000000000013
:104DA0000000000000000000000000000000000003
:104DB00000000000000000000000000000000000F3
:104DC00000000000000000000000000000000000E3
:104DD00000000000000000000000000000000000D3
:104DE00000000000000000000000000000000000C3
:104DF00000000000000000000000000000000000B3
:104E000000000000000000000000000000000000A2
:104E10000000000000000000000000000000000092
:104E20000000000000000000000000000000000082
:104E30000000000000000000000000000100010070
:104E400063008C3A19AE9BBE66292100C929D99D01
:104E50001DAF7EB7D34B7A859A859CB6051120008D
:104E60000000000000000000000000000000000042
:104E7000000000000000000000000100010022000E
:104E800044004819F363998D19A60E4B8308420814
:104E900020002000000000000000000000000000D2
:104EA0000000000000000000000000000000000002
:104EB000000000000000010025006800A800870035
:104EC00004000200010000000000000000000000DB
:104ED00000000000000000000000000000000000D2
:104EE00000000000000000000000000000000000C2
:104EF00000000000000000000000000000000000B2
:104F000000000000000000000000000000000000A1
:104F10000000000000000000000000000000000091
:104F20000000000000000000000000000000000081
:104F3000010001000100010001000100010000006A
:104F40000000000000000000000000000000000061
:104F50000000000000000000000000000000000051
:104F60000000000000000000000000000000000041
:104F700000000000000000000100010022002200EB
:104F80004B325A9EFDA61DBF9384C410B37C5EBFF6
:104F90005EAFBFB71D861B65196D9DAE661900001B
:104FA0000000000000000000000000000000000001
:104FB0000000000000000008010001002200C508F8
:104FC000F463BB955C7DDD85FEA6FDAED895369578
:104FD000262100000000000000000000000000008A
:104FE00000000000000000000000000000000000C1
:104FF000000000000000010025008800A8006700F4
:10500000030002000100000000000000000000009A
:105010000000000000000000000000000000000090
:105020000000000000000000000000000000000080
:105030000000000000000000000000000000000070
:105040000000000000000000000000000000000060
:105050000000000000000000000000000000000050
:10506000000000000000000000000000000001003F
:105070000100020002000200020002000100010023
:105080000000000000000000000000000000000020
:105090000000000000000000000000000000000010
:1050A0000000000000000000000000000000000000
:1050B0000000000000000000210022002200420049
:1050C00093745EB73EA73EB759AE8A427AA69FBF99
:1050D0007FAF5FAF5B6D794C1A65BDB629320000BA
:1050E00000000000000000000000000000000000C0
:1050F0000000000000000000220023000711356CB2
:10510000DD951B753C6D5C6D9B75396DFB957CB6B3
:10511000A410210000000000000000000100210098
:10512000010001000100000000000000000000007C
:10513000000000000000010045008700A800660094
:10514000030001000000000000000000000000005B
:10515000000000000000000000000000000000004F
:10516000000000000000000000000000000000003F
:10517000000000000000000000000000000000002F
:10518000000000000000000000000000000000001F
:10519000000000000000000000000000000000000F
:1051A00000000000000000000000000001000100FD
:1051B00002000200020002000200020002000100E0
:1051C00001000000000000000000000000000000DE
:1051D00000000000000000000000000000000000CF
:1051E00000000000000000000000000000000000BF
:1051F0000000000000002100220022000200A4089C
:10520000199E5EB73FA75EAF7EBF31643DB79FBFBB
:105210009FB7FEA6D964374C1A6DDDAE2D53210021
:10522000000000000000000000000000000000007E
:10523000000000000000010043002711F784FD9DDD
:105240001C7DFB74FA6CD96498541A6DDB95FAA531
:10525000830800000000010001000100020022009C
:1052600022002200020021000100010001000100D3
:10527000000000000000010044008700C80865002D
:10528000020001000000000000000000000000001B
:10529000000000000000000000000000000000000E
:1052A00000000000000000000000000000000000FE
:1052B00000000000000000000000000000000000EE
:1052C00000000000000000000000000000000000DE
:1052D00000000000000000000000000000000000CE
:1052E000000000000000000000002100210021005B
:1052F0000200020003002300230023000300020039
:10530000010001000000000000000000000000009B
:10531000000000000000000000000000000000008D
:10532000000000000000000000000000000000007D
:1053300000000000000001000200220002000A2A12
:105340003EB75FB73FAF3FAFDFBF3CAFDFBFBFBFD1
:105350007FBF1B8E565C36547A7DBDA6B374A308FE
:10536000000000000000000000000000000000003D
:1053700000000000210042008D3A7A8DBD8D5D7DD8
:1053800099645664355CF54B3B6D3B757CAE358D51
:105390006200210001000100020022008408E610E2
:1053A0004B3A2F5BB06BB06B293A620801000100E9
:1053B00001000000000001006500A708A6004300EE
:1053C00001000000000000000000000000000000DC
:1053D0000000000001000100010001002208420855
:1053E000210001000000000000000000000000009B
:1053F00000000000000000000000000000000000AD
:10540000000000000000000000000000000000009C
:10541000000000000000000000000000000000008C
:105420000000000000002000200021000100010019
:1054300002000200220022002200220002000200DC
:10544000010001000000000000000000000000005A
:10545000000000000000000000000000000000004C
:10546000000000000000000000000000000000003C
:10547000000000000100E51863084200220070539C
:105480005FB75FAF5FAF3FA79FB7FFC7FFC7BFC79C
:105490003EAF5975545C1454BC855D96768D4519A4
:1054A00000000000000000000000000000000000FC
:1054B0002000010023002911DC951E969E851B7596
:1054C000776C9674924B78641D75FB6CDDBE517CD5
:1054D000410021000200020063082721D6847CB627
:1054E0009DAE5DA6DEB69FCFFDD6706B220022007A
:1054F00001000100010022008608A70864000200E4
:105500000100000000000000000001000100020096
:1055100001000200240024008508A5108410420820
:105520000100010000000000000000000000000079
:10553000000000000000000000000000000000006B
:10554000000000000000000000000000000000005B
:10555000000000000000000000000000000000004B
:1055600000000000000020002000210001000100D8
:10557000010001000100020001000200020002001F
:105580000100010000000000000000000000000019
:10559000000000000000000000000000000000000B
:1055A00000000000000000000000000000000000FB
:1055B000000000000000CC5A53848729C408946C72
:1055C0001FAF5FAF1FA7FFA63FAFDFC7DEC79EBFFE
:1055D0007C9ED76C535C3454DD853D8EF995C7298C
:1055E00000000000000000000000000000000000BB
:1055F000010022008B29987CDE95BE8D7C85786425
:10560000766C146436641B7D1E751C75DDBE4E5BA6
:10561000220023008408EA3196847A9D5C8D3C85C3
:10562000BD8D3D961EB7BFCFDFE7D48C051963084B
:1056300001000100210022008500A50822000100D0
:1056400000000100010001002200020003004500EB
:10565000C9102B196C294B21E818A608230001005A
:10566000000000000000000000000000000000003A
:10567000000000000000000000000000000000002A
:10568000000000000000000000000000000000001A
:10569000000000000000000000000000000000000A
:1056A0000000000000002000200021002100010077
:1056B00001000100010001000100010001000100E2
:1056C00001000100000000000000000000000000D8
:1056D00000000000000000000000000000000000CA
:1056E00000000000000000000000000001000000B9
:1056F0000000000000004B42389DB8AD905B57851C
:105700007E9EFFAE9F9E9E9EDEA65FBF7EBFFDAECD
:1057100099859564745C765CFD85FD85BCAE8B4295
:105720000000000000000000000000000000000079
:1057300022004921FA847D8DFF95DE95986C766470
:10574000556C15641C7D3D7D1D6D7D8519AEE9315F
:10575000A5104D42D98C1C959B849C7C7E95FF9D09
:105760007FA6BEAE9FC7FFD7FFD7FBBE3CD7AF6BB0
:1057700021000100210022006408840801000100CA
:10578000210001002200440086084A19B242355324
:10579000B442AF29C81065082300020001000000D0
:1057A00000000000000000000000000000000000F9
:1057B00000000000000000000000000000000000E9
:1057C00000000000000000000000000000000000D9
:1057D00000000000000000000000000000000000C9
:1057E0000000000000002000200021002100010036
:1057F0002200010001000100010000000100000082
:105800000000010000000000000000000000000097
:105810000000000000000000000000000000000088
:105820000000000000000000000000000100010076
:1058300000000000010068219463D04ABCBEBEB6DF
:10584000FD957E9E5F963E969FA61FB79EC7DDAED6
:10585000387D946494649664FE85FD85FDB62E4B78
:105860000000000000000000000000000000210017
:105870000719F66B1C85DF9D1F9E7C8D966C7464EA
:105880005564B8747E8D5E7D1C75FD95D58C471969
:10589000B78CBDAD3B7C7D84FE8C7F951F9EBFAEDB
:1058A000BFA6FEAEDFCFBFCFDFC7FFC7DFD77ABE51
:1058B0008208010001000200630863080200020080
:1058C000430043006408491916645C8DF85BCF21DE
:1058D0004800050002000200010001000000000075
:1058E00000000000000000000000000000000000B8
:1058F00000000000000000000000000000000000A8
:105900000000000000000000000000000000000097
:105910000000000000000000000000000000000087
:1059200000000000200020002100210022002200B1
:105930002200010001000100200020000000000002
:105940000000000001000100010001000000000053
:105950000000000000000000000000000000000047
:105960000000000000000000000000000100000036
:105970000000010001006929F252B14AD5637FB6E7
:10598000DD95FE953F961E967FA6BFAEBFCFDDB6D6
:10599000B66C73649464D76CFE85DD7DFEB66F5380
:1059A00000000000000000000000000000004200B5
:1059B0003353DC84DE955FA6DE9DB97C746C726423
:1059C000B66C3B857E855E7D3C7D9DAE1574946B8B
:1059D000FB9C5A849D94FE9C3E959E9D1FA61F9EF7
:1059E000BFA6BFBF9EB75EB7BFBF9EB73DBFF8A5FE
:1059F0006208010002002300640843002400240020
:105A0000E7102C32956C3985D5632F328808450014
:105A10002300220001000000000000000000000040
:105A20000000000000000000000000000000000076
:105A30000000000000000000000000000000000066
:105A40000000000000000000000000000000000056
:105A50000000000000000000000000000000000046
:105A60000000000000002000210021002200220090
:105A70002200010001000000200020002000200082
:105A800020000000000000002100000000000000D5
:105A90000000000000000000000000000000000006
:105AA00000000000000000000000000000000000F6
:105AB0000000010001002821504A714A155BFFAD2A
:105AC000DE9DBE8D5F9E1F963F9E7FA65FC7BDB6C3
:105AD0005464936C74641875FE85BC7D1EB7905B2E
