:020000040800F2
:10000000884200209D010008552A0008631E000850
:10001000512A000881060008013300080000000092
:10002000000000000000000000000000252C000877
:100030009F07000800000000912A0008272C0008F4
:10004000B7010008B7010008B7010008B7010008B0
:10005000B7010008B7010008B7010008B7010008A0
:10006000B7010008B7010008B7010008B701000890
:10007000B7010008B7010008B7010008B701000880
:10008000B7010008B7010008B7010008B701000870
:10009000B7010008B7010008B7010008A107000870
:1000A000B7010008B7010008B7010008B701000850
:1000B000B7010008B7010008B7010008B701000840
:1000C000B7010008B7010008B7010008B701000830
:1000D000B7010008F1320008B7010008B7010008B5
:1000E000B7010008B7010008B7010008B701000810
:1000F000B7010008B7010008B7010008B701000800
:10010000B7010008B7010008B7010008B7010008EF
:10011000B7010008B7010008B7010008B7010008DF
:10012000B7010008B701000885060008B7010008FC
:10013000B7010008B7010008B7010008B7010008BF
:10014000B7010008B7010008B7010008B7010008AF
:10015000B7010008B7010008B7010008B70100089F
:10016000B7010008B7010008B7010008B70100088F
:10017000B7010008B7010008B7010008000000003F
:10018000B7010008B7010008DFF80CD000F066FAEC
:10019000004800475D380008884200200648804734
:1001A00006480047FEE7FEE7FEE7FEE7FEE7FEE75C
:1001B000FEE7FEE7FEE7FEE7152D000889010008CF
:1001C0002DE9FE4F804681EA0300C00F0C460090E7
:1001D00021F0004123F00045B8EB0200A94105D20F
:1001E0004046214690461C460B46024623F00040FE
:1001F000104347D0270DC7F30A00C3F30A510290FA
:10020000401A019040286BDAC3F3130040F4801BBE
:100210000098924620B10023D2EB030A63EB0B0B4C
:1002200001985946C0F14002504600F088F9064650
:100230000D4650465946019A00F0A0F910EB08000F
:100240006141002487EA115284EAE7731A4340D0DF
:10025000009A62B3019A012A4FEA075215DC001B8B
:1002600061EB02014FF0004202EA0752CDE9004281
:10027000001C41F5801132462B4600F0A0F903B076
:10028000BDE8F08F40462146F9E7001B61EB020113
:10029000001C41F5801300185B412018A2F50017DF
:1002A00047EB030140EAD570B6196D4111E06D08C6
:1002B0004FEA360645EAC0754FEA0752001B61EB6C
:1002C0000201001C41F5801149084FEA3000001975
:1002D000514132462B4603B0BDE8F04F00F060B903
:1002E0000098012240000023D0EB020263EBE07390
:1002F000009821464FEAE074B8EB000061EB04017E
:10030000E9E783F000435BE781F0004158E72DE91E
:10031000FE4F81EA030404F0004421F00041009400
:100320004FF0000B23F0004350EA01045ED052EA84
:1003300003045BD0C3F30A54C1F30A552C44A4F25E
:10034000F3340194A0FB0254C1F3130141F4801172
:10035000C3F3130343F4801301FB024400FB034E79
:10036000840A970A44EA815447EA8357A4FB076842
:1003700002958D0A05FB07854FEA932C04FB0C546C
:100380002705029D4FEA065847EA1637B5EB0805E0
:100390006EEB070C870E920E47EA811742EA831232
:1003A000A7FB0201B6EB0B0164EB00042B0D43EA43
:1003B0000C335E1844EB1C50DA465146E7FB020151
:1003C000C5F313044FEA0B3343EA14534FEA0432E4
:1003D000019C43EA0603A4F10C040294009CCDE9BD
:1003E00000B400F0ECF803B0BDE8F08F0020014647
:1003F000F9E72DE9F04D81EA030404F0004B21F008
:10040000004514464FF0000A23F0004150EA05026F
:1004100020D054EA01021DD0C5F30A570246C5F3A5
:100420001303C1F31300C1F30A5640F4801543F4DB
:100430008013A7EB0608101BD64608F2FD3873EBB5
:10044000050002D308F1010801E092185B41B8F100
:10045000000F03DA00200146BDE8F08D00204FF4C4
:100460008011064684460EE0171B73EB050705D383
:10047000121B63EB050306434CEA010C49084FEAE3
:10048000300092185B4150EA0107EDD152EA0300B7
:1004900012D082EA040083EA0501084305D0101B4C
:1004A000AB4106D20122002306E000224FF00043B8
:1004B00002E06FF0010253101AEB06004CEB0851FA
:1004C00010EB0A0041EB0B01BDE8F04D00F068B8FD
:1004D0000EB5C10F80EAE0700844CA07002140F25F
:1004E00033438DE80E000A460B4600F068F803B06F
:1004F00000BD0EB540F2334102910021CDE900115B
:100500000A460B4600F05BF803B000BDC1F30A5287
:1005100010B5C1F3130140F2FF3341F480119A4248
:1005200001DA002010BD40F233439A42A2F2334276
:1005300003DC524200F012F810BD904010BD202A9A
:1005400004DB203A00FA02F1002070479140C2F12A
:10055000200320FA03F3194390407047202A04DB5C
:10056000203A21FA02F00021704721FA02F3D0402C
:10057000C2F120029140084319467047202A06DB49
:10058000CB17203A41FA02F043EAE07306E041FA61
:1005900002F3D040C2F1200291400843194670474F
:1005A00010B5141E73F1000408DA401C41F100017B
:1005B00092185B411A4301D120F0010010BD2DE9D2
:1005C000F04D92469B4611B1B1FA81F202E0B0FAC9
:1005D00080F220329046FFF7B2FF04460F4640EA11
:1005E0000A0041EA0B0153465A46084313D011460C
:1005F00053EA010019D0C8F140025046FFF7AEFFA0
:1006000005460E46504659464246FFF798FF0843B6
:1006100005D0012004E020463946BDE8F08D0020D9
:10062000054346EAE0762C4337430A986305E40A1B
:10063000A0EB08000022FD0A44EA47540A3002D524
:1006400000200146E9E7010510196941DDE9084587
:1006500000196941BDE8F04DA2E70000064C074DC6
:1006600006E0E06840F0010394E807009847103482
:10067000AC42F6D3FFF78CFDB0150108D015010888
:1006800000BFFEE710B5024800F0E6F910BD00001B
:100690005C0000200146087810381823B0FBF3F204
:1006A0000848805CC865032A05D908686FF309000B
:1006B000001D886503E008686FF309008865886D90
:1006C0007047000008420008014600208A6A8B69D2
:1006D000CBB932B1012A0DD0022A03D0032A10D19E
:1006E0000EE000BFCB6A03F08073B3F1807F00D1CE
:1006F000012007E0CB6AB3F1C07F00D1012001E007
:1007000000E000BF34E08B69B3F5005F1AD132B16D
:10071000012A07D0022A03D0032A11D10AE000BF20
:1007200001200EE0CB6A03F08073B3F1807F00D12B
:10073000012006E0CB6AB3F1C07F00D1012000E0C8
:1007400000BF15E032B1012A05D0022A04D0032AE5
:100750000CD103E000BF00BF012008E0CB6A03F02A
:100760008073B3F1807F00D1012000E000BF00BFA3
:10077000704730B50468246824F4802405682C6030
:10078000046863608468402C04D10468A260046833
:10079000E16003E00468A1600468E26030BD704776
:1007A00010B54FF4807000F0A7FB10BD70B5044683
:1007B0001D460023B5F5804F13D154F822300C4864
:1007C0000340D1E9000640EA06108E6840EA0620A0
:1007D0008E8940EA06408E693043034344F8223054
:1007E00003E06FF0704044F82200002070BD00006C
:1007F0000000F0CF10B503460022086853F820200F
:1008000012480240D1E901042043CC6820430C691E
:1008100020434C6920438C692043CC6920430C6AF7
:1008200020434C6A20438C6A2043CC6A2043CC6B23
:1008300020430C6B204302438868082801D142F012
:100840004002086843F82020002010BD8000F0FF1F
:1008500030B503460024501C53F8204004F04044B7
:10086000D1E9000540EA05108D6840EA05208D8930
:1008700040EA0545088A401E45EA0055087D801E6D
:1008800045EA00608D6928430443501C43F820402A
:10089000002030BD70B505460E46002401F094FBE3
:1008A000702001F057FB01F0CBFB002001F052FB60
:1008B00001F0C6FB01F0A6FB01F086FB712001F000
:1008C00049FB01F0BDFB00BF0DE0701EA04204D14A
:1008D000002001F00DFB285503E0012001F008FB8A
:1008E0002855601C44B2B442EFD301F08BFB0020CA
:1008F00070BD000000B587B000BF00200190134814
:10090000006840F04000114908600846006800F0A7
:100910004000019000BF00BF03200290112003900F
:10092000002004900120059002A9094800F0F2FA85
:1009300001220221064800F0F5FB0122114604487D
:1009400000F0F0FB01F05EFB07B000BD3038024064
:10095000001802402DE9FF4F83B0DDF80C80DDF870
:100960001090DDE9030101F0D8FEDDF80C80059858
:10097000A0EB0805DDF810900698A0EB0906002D05
:1009800002DB0120029003E04FF0FF3002906D4245
:10099000002E02DB0120019003E04FF0FF300190B8
:1009A00076424FEA450A4FEA460BB54217DDABEBFC
:1009B0000504002710E01FFA89F11FFA88F0109A49
:1009C00000F028F8002C03DBA4EB0A040198814412
:1009D0005C44029880447F1CAF42ECDD16E0AAEB39
:1009E0000604002710E01FFA89F11FFA88F0109A18
:1009F00000F010F8002C03DBA4EB0B0402988044F9
:100A00005444019881447F1CB742ECDD07B0BDE837
:100A1000F08F000070B505460E4614463146284654
:100A200001F07BFE0148048070BD00000000026000
:100A3000014691F83500022803D080204865012046
:100A40007047052081F835000868006820F0010033
:100A50000A6810600020F3E7F8B504460020009013
:100A60008D4800684FF41651B0FBF1F7A56D2E6864
:100A700094F85C1008208840304098B120680068E5
:100A800000F0040070B12068006820F004002168C4
:100A9000086094F85C1008208840A860606D40F001
:100AA0000100606594F85C107C488840304068B173
:100AB0002068406900F0800040B194F85C107748ED
:100AC0008840A860606D40F00200606594F85C109A
:100AD0007248C01C8840304070B12068006800F047
:100AE000020048B194F85C106C48C01C8840A860B3
:100AF000606D40F00400606594F85C101020884040
:100B0000304078B32068006800F0080050B394F8D3
:100B10005C1010208840A8602068006800F48020E5
:100B200080B12068006800F4002028B9206CC8B1AA
:100B30002046216C884715E0A06C98B12046A16C36
:100B400088470FE02068006800F4807028B92068AA
:100B5000006820F0080021680860206C10B1204671
:100B6000216C884794F85C10202088403040002891
:100B700065D02068006800F0100000285FD094F86D
:100B80005C1020208840A86094F83500052828D102
:100B90002068006820F0160021680860206840691D
:100BA00020F0800021684861206C08B9A06C28B151
:100BB0002068006820F008002168086094F85C1044
:100BC0003F208840A86000BF002084F8340000BFA8
:100BD000012084F83500206D10B12046216D884732
:100BE000F8BD2068006800F4802080B120680068AB
:100BF00000F4002028B9606C10B12046616C884771
:100C00001DE0E06BD8B12046E16B884717E0206813
:100C1000006800F4807068B92068006820F0100057
:100C20002168086000BF002084F8340000BF012064
:100C300084F83500E06B10B12046E16B8847606DA9
:100C400038B3606D00F00100F0B1052084F8350084
:100C50002068006820F001002168086000BF00984B
:100C6000401C0090B84200D905E02068006800F000
:100C700001000028F3D100BF00BF002084F8340039
:100C800000BF012084F83500E06C10B12046E16C13
:100C9000884700BFA4E7000000000020010080009A
:100CA0002DE9F0410446002500F042FA074614B948
:100CB0000120BDE8F081606A00B100BF00BF0020E4
:100CC00084F8340000BF022084F8350020680068F2
:100CD00020F00100216808600AE000F029FAC01B3A
:100CE000052805D920206065032084F83500E0E759
:100CF0002068006800F001000028EED12068056837
:100D000021480540D4E901010843E168084321690D
:100D1000084361690843A1690843E1690843216AFE
:100D200008430543606A042803D1D4E90B01084352
:100D30000543206805602068456925F00705606A5D
:100D40000543606A04280DD1A06A0543E06A48B1F2
:100D50002046FFF7B9FC28B140206065012084F8E7
:100D60003500A6E7206845612046FFF793FC06465C
:100D700094F85C103F208840B0600020606501203E
:100D800084F83500002094E73F8010F02DE9F0470B
:100D900004460D4616461F464FF00008D4F85890FA
:100DA00000BF94F83400012802D10220BDE8F0878A
:100DB000012084F8340000BF94F8350001282BD1BD
:100DC000022084F83500002060653B463246294603
:100DD0002046FFF7CEFC94F85C103F208840C9F80D
:100DE00008002068006840F016002168086020684C
:100DF000406940F0800021684861206C28B120687B
:100E0000006840F00800216808602068006840F031
:100E100001002168086006E000BF002084F834006B
:100E200000BF4FF002084046C0E7000000B587B0A1
:100E300000BF002001902B48006840F008002949BD
:100E400008600846006800F00800019000BF00BF7D
:100E500000BF002001900846006840F010000860C4
:100E60000846006800F01000019000BF00BF1E4857
:100E7000006808B107B000BD01201B49086000BF31
:100E80000020019017480830006840F00100154923
:100E9000083108600846006800F00100019000BFBA
:100EA00000BF4FF680700290022003900020049053
:100EB000032005900C20069002A90C4800F02AF8A7
:100EC0004CF6B3700290022003900020049003209F
:100ED00005900C20069002A9054800F01BF800BF01
:100EE000C8E700003038024008000020001002402F
:100EF000000C02407047000010B50446044800682A
:100F0000204020B1024804602046FFF7F3FF10BDE7
:100F1000143C0140F8B502460B4600250024002091
:100F20000021DCE0012606FA01F51E6806EA050448
:100F3000AC4273D15E68022E02D05E68122E13D1CD
:100F4000CF0802F1200656F827004E07F70E0F26AD
:100F5000BE40B0434F07FF0E1E69BE403043CF086E
:100F600002F1200646F8270010684F000326BE4015
:100F7000B0431E7906F003064F00BE4030431060B8
:100F80005E68012E08D05E68022E05D05E68112EC4
:100F900002D05E68122E13D190684F000326BE4027
:100FA000B0434F00DE68BE40304390605068012679
:100FB0008E40B0431E79C6F300168E403043506019
:100FC000D0684F000326BE40B0434F009E68BE402D
:100FD0003043D0605E6806F08056B6F1805F7DD108
:100FE00000BF00260096404E366846F480463E4FCD
:100FF0003E603E46366806F48046009600BF00BF5D
:101000003A4E8F0856F827008E07370F0F26BE403E
:10101000B043374EB24202D1002624E05EE0354EA6
:10102000B24201D101261EE0334EB24201D1022666
:1010300019E0324EB24201D1032614E0304EB242E2
:1010400001D104260FE02F4EB24201D105260AE05D
:101050002D4EB24201D1062605E02C4EB24201D1FE
:10106000072600E008268F073F0FBE4030431F4E83
:101070008F0846F82700264E3068A0435E6806F4C5
:101080008036B6F5803F00D12043214E3060361DBA
:101090003068A0435E6806F40036B6F5003F00D124
:1010A00020431B4E361D3060361D3068A0435E68FD
:1010B00006F48016B6F5801F00D12043144E083682
:1010C0003060361D3068A0435E6806F40016B6F541
:1010D000001F00D120430E4E0C363060491C1029F1
:1010E000FFF420AFF8BD000044380240083801404A
:1010F000000002400004024000080240000C0240D0
:10110000001002400014024000180240001C02407F
:10111000003C0140024613690B400BB1012000E086
:10112000002070470AB1816101E00B0483617047C0
:101130000148006870470000040000200248006871
:10114000401C0149086070470400002010B50D489C
:10115000006840F400700B4908600846006840F4DD
:10116000806008600846006840F4807008600320D2
:1011700000F094F8002000F007F800F019F80020C3
:1011800010BD0000003C024070B5044607480068EE
:101190004FF47A71B0FBF1F5284600F073FC0022A1
:1011A0002146501E00F03CF8002070BD00000020D9
:1011B00010B5032000F072F8002211466FF00B000A
:1011C00000F02EF8002211466FF00A0000F028F817
:1011D000002211466FF0090000F022F800221146AB
:1011E000501F00F01DF800221146101F00F018F8E3
:1011F00000221146901E00F013F800221146501EE6
:1012000000F00EF810BD00BF00F01F020121914058
:101210004209920002F1E022C2F8001100BF7047BB
:101220002DE9F05F80460D461646002701F014FCBC
:10123000074639462A46334601F00700C0F1070A3F
:10124000BAF1040F02D94FF0040A01E0C0F1070A15
:10125000D14600F1040ABAF1070F02D24FF0000A9A
:1012600001E0A0F1030AD4464FF0010A0AFA09FA94
:10127000AAF1010A0AEA020A0AFA0CFA4FF0010B73
:101280000BFA0CFBABF1010B0BEA030B4AEA0B0464
:101290002146404601F0E8FBBDE8F09F00BF00F0AA
:1012A0000702064B19684FF6FF031940044B0B4326
:1012B00043EA0221014B196000BF70470CED00E0CA
:1012C0000000FA0570B504460D4600266D4800681A
:1012D00000F00F00A84209D26A490D700846006864
:1012E00000F00F00A84201D0012070BD207800F06E
:1012F0000200022807D16448006820F0F000A168CD
:10130000084361490860207800F00100002877D088
:101310006068012807D15C4808380068C0F3404085
:10132000B8B90120E1E76068022802D060680328AC
:1013300007D1554808380068C0F3406048B901201B
:10134000D3E7514808380068C0F3400008B90120CD
:10135000CBE74D48006820F00300616808434A4924
:101360000860FFF7E5FE06466068012810D108E036
:10137000FFF7DEFE801B41F28831884201D903204D
:10138000B3E74148006800F00C000428F0D137E0D2
:101390006068022810D108E0FFF7CAFE801B41F206
:1013A0008831884201D903209FE73748006800F060
:1013B0000C000828F0D123E06068032810D108E071
:1013C000FFF7B6FE801B41F28831884201D9032025
:1013D0008BE72D48006800F00C000C28F0D10FE0DE
:1013E00008E0FFF7A5FE801B41F28831884201D951
:1013F00003207AE72448006800F00C000028F0D1B0
:101400002048006800F00F00A84209D91D490D705E
:101410000846006800F00F00A84201D0012064E7F0
:10142000207800F00400042807D11748006820F451
:10143000E050E168084314490860207800F0080093
:10144000082808D11048006820F46040216940EA6B
:10145000C1000D49086000F04FF80B49096801F020
:10146000F001F02292FAA2F2B2FA82F2D140074AD7
:10147000515CC840064908600020FFF785FE002047
:1014800033E70000003C024008380240F041000809
:1014900000000020014800687047000000000020A4
:1014A00000B5FFF7F7FF0749096801F4E0514FF471
:1014B000E05292FAA2F2B2FA82F2D140024A515CB0
:1014C000C84000BD083802400042000800B5FFF7E0
:1014D000E1FF0749096801F460414FF4604292FA64
:1014E000A2F2B2FA82F2D140024A515CC84000BD79
:1014F000083802400042000870B500210022002395
:101500000020274C246804F00C0424B1042C04D0DF
:10151000082C41D103E0234840E023483EE0204C22
:10152000241F246804F03F011D4C241F246804F488
:10153000800484B11C4CB4FBF1F5194C241F2468C1
:1015400047F6C076344096FAA6F6B6FA86F6F44028
:1015500005FB04F20FE0134CB4FBF1F5104C241F13
:10156000246847F6C076344096FAA6F6B6FA86F6B0
:10157000F44005FB04F20A4C241F246804F44034B0
:101580004FF4403595FAA5F5B5FA85F5EC40641CA5
:101590006300B2FBF3F001E0024800BF00BF70BD82
:1015A000083802400024F40000127A0038B50446DE
:1015B0000025207800F00100002874D0F74800686A
:1015C00000F00C0004280DD0F448006800F00C0076
:1015D000082813D1F148001F006800F48000B0F51E
:1015E000800F0BD1ED4808380068C0F34040002858
:1015F00059D06068002856D1012038BD00BF60680E
:10160000B0F5803F08D1E5480838006840F48030E4
:10161000E249083908601EE06068B0F5A02F0DD1DE
:10162000DE480838006840F48020DC49083908604A
:101630000846006840F4803008600CE0D74808385D
:10164000006820F48030D5490839086008460068F1
:1016500020F48020086000BF606890B1FFF768FD4B
:10166000054606E0FFF764FD401B642801D903200E
:10167000C3E7CA4808380068C0F340400028F1D0EA
:1016800011E0FFF755FD054606E0FFF751FD401B51
:10169000642801D90320B0E7C04808380068C0F3C7
:1016A00040400028F1D1207800F00200022869D1E2
:1016B000BA48006800F00C0058B1B848006800F063
:1016C0000C00082821D1B548001F006800F48000F4
:1016D000D8B9B24808380068C0F3400020B1E068CB
:1016E000012801D0012088E7AC480838006820F0C4
:1016F000F800F82292FAA2F2B2FA82F2216991403D
:101700000843A649083908603CE0E06828B3012096
:10171000A3490860FFF70CFD054606E0FFF708FD4A
:10172000401B022801D9032067E79C48083800685D
:10173000C0F340000028F1D098480838006820F035
:10174000F800F82292FAA2F2B2FA82F221699140EC
:10175000084392490839086014E000209049086065
:10176000FFF7E6FC054606E0FFF7E2FC401B022817
:1017700001D9032041E7894808380068C0F34000D8
:101780000028F1D1207800F0080008282CD16069E9
:10179000A8B1012083490860FFF7CAFC054606E0AE
:1017A000FFF7C6FC401B022801D9032025E77B4830
:1017B0006C300068C0F340000028F1D014E0002035
:1017C00078490860FFF7B4FC054606E0FFF7B0FC77
:1017D000401B022801D903200FE770486C300068D5
:1017E000C0F340000028F1D1207800F00400042864
:1017F0007FD100BF0020009068483830006840F07A
:1018000080506649383108600846006800F0805012
:10181000009000BF00BF6448006840F480706249D7
:101820000860FFF785FC054606E0FFF781FC401BDA
:10183000022801D90320E0E65B48006800F48070CC
:101840000028F2D000BFA068012808D153486830B2
:10185000006840F001005149683108601DE0A0684F
:1018600005280DD14D486830006840F004004B4910
:10187000683108600846006840F0010008600CE02C
:1018800046486830006820F001004449683108602B
:101890000846006820F00400086000BFA068A0B1FE
:1018A000FFF746FC054608E0FFF742FC401B41F20B
:1018B0008831884201D903209FE6384868300068A3
:1018C000C0F340000028EFD013E0FFF731FC0546DD
:1018D00008E0FFF72DFC401B41F28831884201D916
:1018E00003208AE62D4868300068C0F340000028D5
:1018F000EFD1A069F0B32948006800F00C00082877
:1019000071D0A069022858D1002025490866FFF748
:101910000FFC054606E0FFF70BFC401B022801D92F
:1019200003206AE61D4808380068C0F340600028BC
:10193000F1D1D4E90701084347F6C07292FAA2F246
:10194000B2FA82F2616A914008430122A16AC2EBB5
:1019500051014FF4403292FAA2F2B2FA82F291406F
:1019600008434FF0706292FAA2F2B2FA82F2E16A90
:10197000914000E039E008430849091F0860012050
:1019800007490866FFF7D4FB05460FE0FFF7D0FBD9
:10199000401B02280AD903202FE600000838024025
:1019A00000004742800E4742007000401048006827
:1019B000C0F340600028E9D017E000200D49086618
:1019C000FFF7B6FB054606E0FFF7B2FB401B022817
:1019D00001D9032011E606480068C0F340600028E2
:1019E000F2D102E0FFE7012007E6002005E6000053
:1019F000003802400000474270B504460E461546C6
:101A00000CB9012070BD94F8490028B9002084F871
:101A10004800204600F01CF804F108012068FEF799
:101A2000E9FE3146A2682068FEF712FF2946236BC3
:101A3000D4E90102FEF7BAFEA168206850F821003F
:101A400040F00100A268216841F822000020D9E797
:101A500010B50446FFF7EAF910BD042808D14FF08D
:101A6000E021096941F004014FF0E022116107E033
:101A70004FF0E021096921F004014FF0E0221161EB
:101A80007047704770B504462546681EB0F1807FE8
:101A900001D301200FE0681E4FF0E02148610F21C3
:101AA0004FF0FF3000F0E0FF00204FF0E0218861B0
:101AB00007200861002070BD10B5FFF7E2FF10BDE0
:101AC000704700002DE9F04704462068056820684B
:101AD000C668206847694FF00008C14605F00F0846
:101AE000B8F1000F0AD105F0200038B106F020004F
:101AF00020B1204601F0C6F9BDE8F087B8F1000F2B
:101B00006DD007F0010018B906F49070002866D077
:101B100005F0010030B106F4807018B1E06B40F0C0
:101B20000100E06305F0040030B107F0010018B1D6
:101B3000E06B40F00200E06305F0020030B107F016
:101B4000010018B1E06B40F00400E06305F008000C
:101B500030B107F0010018B1E06B40F00800E0631D
:101B6000E06B68B305F0200028B106F0200010B14A
:101B7000204601F087F920684069C0F38019E06BC6
:101B800000F0080010B9B9F1000F22D0204601F092
:101B90004FF92068406900F04000B0B1206840690A
:101BA00020F0400021684861606B50B11748616BBC
:101BB0000865606BFEF73CFF10B1606B016D8847F4
:101BC0000CE02046FFF77CFF08E02046FFF778FF97
:101BD00004E02046FFF774FF0020E0638CE705F087
:101BE000800030B106F0800018B1204601F04CFBB7
:101BF00082E705F0400030B106F0400018B1204601
:101C000001F026F978E700BF76E70000792D00089B
:101C100010B504460CB9012010BDA06900B100E068
:101C200000BF94F8390028B9002084F83800204615
:101C300000F028F8242084F839002068C06820F4D7
:101C400000502168C860204601F06AF920680069E8
:101C500020F49040216808612068406920F02A0043
:101C6000216848612068C06840F400502168C8605D
:101C70000020E063202084F8390084F83A00002036
:101C8000CAE7000010B586B004462449206888429F
:101C900041D100BF002000902148006840F01000B2
:101CA0001F4908600846006800F01000009000BF5F
:101CB00000BF4FF4C0600190022002900120039009
:101CC000032004900720059001A91648FFF722F988
:101CD0001548164908604FF000604860002113481D
:101CE0008160C1604FF480610161002141618161C7
:101CF0004FF48071C1610902016200214162FEF767
:101D0000CFFF18B175210AA001F006FB00BF0748FC
:101D10006063846300BF06B010BD00000010014086
:101D20004438024000000240406402405C00002051
:101D30002E2E2F5372632F75736172742E63000001
:101D400077B581B00446154694F83A00202850D162
:101D5000029800B115B9012004B070BD00BF94F81D
:101D60003800012801D10220F6E7012084F838006C
:101D700000BF0298A062A5850020E063222084F8BD
:101D80003A001D48616BC8631C48616B08641C48BD
:101D9000616BC8640020616B086502AE326823681D
:101DA000191D2B46606BFEF7F1FF00BF002000906D
:101DB00020680068009020684068009000BF00BF65
:101DC00000BF002084F8380000BF2068C06840F4DD
:101DD00080702168C8602068406940F00100216877
:101DE00048612068406940F0400021684861002057
:101DF000B2E70220B0E70000DD2D0008232E000826
:101E00008D2D00087047704710B5034693F83900D0
:101E1000202823D101B10AB9012010BD00BF93F8D9
:101E20003800012801D10220F7E7012083F83800AB
:101E300000BF19629A84DA840020D863212083F8D5
:101E4000390000BF002083F8380000BF1868C06860
:101E500040F080001C68E0600020DEE70220DCE744
:101E6000704700BFFEE7000010B5002202210C48B9
:101E7000FFF758F9002201210948FFF753F9142010
:101E800000F010F8012202210548FFF74BF9142059
:101E900000F008F8002202210148FFF743F910BDC5
:101EA00000180240002101E04A1C91B28142FBDB94
:101EB0007047000010B5002202210C48FFF732F9EC
:101EC000012211460948FFF72DF91420FFF7EAFF18
:101ED000012202210548FFF725F91420FFF7E2FF50
:101EE000002202210148FFF71DF910BD0018024031
:101EF00070B505460024012211461548FFF712F976
:101F000000261AE0002202211148FFF70BF91420E5
:101F1000FFF7C8FF012202210D48FFF703F9600611
:101F2000040E01210A48FFF7F5F808B1601CC4B29D
:101F30001420FFF7B7FF701CC6B2082EE2DB15B9FC
:101F4000FFF7B8FF01E0FFF78FFF204670BD0000EC
:101F50000018024038B50446002202211948FFF754
:101F6000E1F80020009027E004F0800028B1012271
:101F700011461448FFF7D6F804E000220121114869
:101F8000FFF7D0F81420FFF78DFF012202210D4842
:101F9000FFF7C8F81420FFF785FF00220221094847
:101FA000FFF7C0F81420FFF77DFF6006040E9DF8D0
:101FB0000000401CC0B200909DF800000828D3DB50
:101FC00038BD00000018024010B5012211460C482F
:101FD000FFF7A8F8012202210948FFF7A3F82820FB
:101FE000FFF760FF002201210548FFF79BF828203A
:101FF000FFF758FF002202210148FFF793F810BDB8
:102000000018024010B5002201210C48FFF78AF8A1
:10201000002202210948FFF785F82820FFF742FF38
:10202000012211460548FFF77DF8012202210348ED
:10203000FFF778F82820FFF735FF10BD00180240A1
:1020400008B500200090012211461448FFF76AF8F5
:102050000A20FFF727FF012202211048FFF762F84C
:102060000A20FFF71FFF0CE0BDF80000401C80B203
:102070000090BDF800001E2803DDFFF7C3FF01201C
:1020800008BD01210548FFF745F80028ECD10022E2
:1020900002210248FFF746F80020F1E7001802404D
:1020A00000B587B000BF002001902248006840F0D2
:1020B0000800204908600846006800F00800019008
:1020C00000BF00BF4FF40050029001200390002099
:1020D00004900120059002A91748FEF71BFF01227A
:1020E00051031548FFF71EF800BF0020019011486A
:1020F000006840F020000F4908600846006800F0C2
:102100002000019000BF00BF4FF4804002900120EA
:102110000390002004900120059002A90748FEF7D3
:10212000F9FE00224FF480410448FEF7FBFF07B0A0
:1021300000BD000030380240000C02400014024094
:1021400010B5FFF7ADFF00F0BBF9FF2001F0DAF8A2
:10215000FF2001F0DBF8982001F0D8F8062001F00C
:10216000D5F8BC2001F0CEF8032001F0CFF80F2005
:1021700001F0CCF8632001F0C9F8692001F0C6F83D
:10218000012001F0C3F8012001F0C0F81B2001F08C
:10219000BDF8112001F0BAF8702001F0B7F87320F3
:1021A00001F0B4F8FF2001F0B1F8FF2001F0AEF823
:1021B000082001F0ABF8092001F0A8F8052001F093
:1021C000A5F8002001F0A2F8EE2001F09FF8E2202F
:1021D00001F09CF8012001F099F8002001F096F838
:1021E000C12001F093F8BD2001F08CF8012001F02E
:1021F0008DF8232001F08AF8452001F087F8672048
:1022000001F084F8012001F081F8232001F07EF82C
:10221000452001F07BF8672001F078F8BE2001F03E
:1022200071F8002001F072F8222001F06FF82720E9
:1022300001F06CF86A2001F069F8BC2001F066F842
:10224000D82001F063F8922001F060F8222001F01C
:102250005DF8222001F05AF8C72001F053F88F20D2
:1022600001F054F8802001F051F8ED2001F04AF817
:102270007F2001F04BF80F2001F048F8C02001F05A
:1022800041F8C72001F042F80B2001F03FF802208E
:1022900001F03CF8002001F039F8002001F036F898
:1022A000882001F033F82C2001F030F8502001F0A4
:1022B0002DF8002001F02AF8002001F027F8002076
:1022C00001F024F8002001F021F8FF2001F01EF8B1
:1022D000FC2001F017F8042001F018F8DF2001F0CD
:1022E00011F8002001F012F8002001F00FF8002092
:1022F00001F00CF8002001F009F8002001F006F8C8
:10230000202001F003F8F32000F0FCFF742000F01F
:10231000FDFFB42000F0F6FF002000F0F7FF0020E2
:1023200000F0F4FF002000F0F1FFF72000F0EAFFDA
:10233000812000F0EBFFB12000F0E4FF002000F06E
:10234000E5FF102000F0E2FF142000F0DFFFF12095
:1023500000F0D8FF292000F0D9FF8A2000F0D6FF36
:10236000072000F0D3FFF22000F0CCFF402000F067
:10237000CDFFD22000F0CAFF502000F0C7FF282078
:1023800000F0C4FFC12000F0BDFF172000F0BEFF29
:10239000852000F0BBFF852000F0B8FF202000F072
:1023A000B5FFE02000F0AEFF002000F0AFFF0C20F2
:1023B00000F0ACFF152000F0A9FF0D2000F0A6FFF3
:1023C0000F2000F0A3FF0C2000F0A0FF072000F07A
:1023D0009DFF052000F09AFF072000F097FF0B20DB
:1023E00000F094FF102000F091FF102000F08EFF0D
:1023F0000D2000F08BFF172000F088FF0F2000F069
:1024000085FF002000F082FFE12000F07BFF00202C
:1024100000F07CFF0D2000F079FF152000F076FF22
:102420000E2000F073FF102000F070FF0D2000F070
:102430006DFF082000F06AFF062000F067FF07200C
:1024400000F064FF0C2000F061FF112000F05EFF3F
:10245000112000F05BFF0E2000F058FF172000F065
:1024600055FF0F2000F052FF002000F04FFF3520F5
:1024700000F048FF002000F049FF362000F042FF46
:10248000A02000F043FF3A2000F03CFF552000F070
:102490003DFF112000F036FF782000F08FF8292052
:1024A00000F030FF0A2000F089F801229103034870
:1024B000FEF738FE0F2000F097F810BD0014024020
:1024C00010B500224FF400510748FEF72BFE0A20FA
:1024D00000F074F8012251030348FEF723FE0220A6
:1024E00000F06CF810BD0000000C02402DE9FC5F0C
:1024F00080460D4616461C46AB462C480088019087
:102500002046E21704EB5272D21002FB04F101EBF9
:10251000D172C2F34F020092A6F12000C6B200278A
:102520003CE0202C05D1224800EB861010F80790E3
:1025300006E0402C04D11F4800EB062010F807905D
:102540004FF0000A24E009F0800018B11749019803
:10255000088003E01848008814490880134802885E
:1025600029464046FEF756FA4FF6FF7000EA490941
:10257000681C85B2A5EB0B00A04205D15D4608F1B1
:1025800001001FFA80F806E00AF101001FFA80FA44
:10259000BAF1080FD7DB00BF781C87B200988742DA
:1025A000BFDB024901980880BDE8FC9F12000020B3
:1025B00010420008D05900081400002008B50CE0B3
:1025C0004FF4E151009104E0BDF80010491E89B2BA
:1025D0000091BDF800100029F6DC0100A0F1010215
:1025E000D0B2EDD108BD000070B5044640F2DF1353
:1025F00040F255320021084600F056F800250AE066
:10260000002603E006480480701C86B2B6F5F07F11
:10261000F8DB681C85B240F256308542F0DB70BDB5
:10262000000002602DE9F04F06460F4614461D4695
:10263000A64203DAA01B1FFA80F902E0301B1FFA42
:1026400080F9AF4203DAE81B1FFA80FA02E0781B38
:102650001FFA80FA681E83B2601E82B23946304685
:1026600000F022F84FF000080FE04FF0000B06E0FA
:102670000C49099808800BF101001FFA80FBD34533
:10268000F6DB08F101001FFA80F8C845EDDB40F2E7
:10269000DF1340F255320021084600F005F8BDE88E
:1026A000F08F0000000002602DE9F04304460D4663
:1026B000944202DC2646174601E0164627469D4214
:1026C00002DCA846994601E09846A9462A2000F077
:1026D00019FE301200F01AFEF0B200F017FE3812A8
:1026E00000F014FEF8B200F011FE2B2000F00AFEFC
:1026F0004FEA282000F00AFE08F0FF0000F006FE76
:102700004FEA292000F002FE09F0FF0000F0FEFD74
:102710002C2000F0F7FDBDE8F08300B502460B4623
:102720002A2000F0EFFD101200F0F0FDD0B200F012
:10273000EDFD2B2000F0E6FD181200F0E7FDD8B209
:1027400000F0E4FD2C2000F0DDFD00BD08B500BF69
:10275000002000900A48006840F4800008490860A2
:102760000846006800F48000009000BF00BF00220F
:1027700011463A20FEF754FD3A20FEF744FD08BD0D
:102780003038024000B587B04FF02040194908604A
:10279000194848600020886000211648C160016126
:1027A0001021416100218161C161016241624FF4E8
:1027B000805181620021C162016341638163416490
:1027C000022000900F200190012002900020039031
:1027D00010200490112005900020069000226946E8
:1027E0000448FFF709F918B1562104A000F094FD40
:1027F00007B000BDBC000020040100A02E2E2F5306
:1028000072632F66736D632E6300000000B587B09E
:1028100000BF002001906C48006840F010006A4939
:1028200008600846006800F01000019000BF00BF7B
:1028300000BF002001900846006840F004000860D6
:102840000846006800F00400019000BF00BF00BF10
:10285000002001900846006840F02000086008460B
:10286000006800F02000019000BF00BF00BF002002
:1028700001900846006840F0800008600846006843
:1028800000F08000019000BF00BF00BF0020019059
:102890000846006840F0020008600846006800F042
:1028A0000200019000BF00BF00BF00200190084659
:1028B000006840F0080008600846006800F0080062
:1028C000019000BF00BF00BF0020019008460068D3
:1028D00040F0400008600846006800F040000190A9
:1028E00000BF00BF00BF002001900846006840F014
:1028F000010008600846006800F00100019000BF78
:1029000000BF002243F601013048FEF70BFC002215
:1029100041F202012E48FEF705FC0F200290002034
:1029200003900120049002A92A48FEF7F3FA01203F
:1029300002900390002004900320059002A92348F0
:10294000FEF7E8FA02200290012003900020049094
:102950000120059002A91E48FEF7DCFA4FF46050F2
:10296000029001200390002004900120059002A90C
:102970001648FEF7CFFA4FF48050029001200390E2
:10298000002004900320059002A91148FEF7C2FA26
:102990004FF4604002900220039000200490032036
:1029A00005900520069002A90948FEF7B3FA4FF4F6
:1029B00080700290084803900020049002A9074804
:1029C000FEF7A8FA07B000BD3038024000140240FC
:1029D00000040240001002400000311000180240C4
:1029E00010B5002208211720FEF71AFC1720FEF769
:1029F0000AFC002201212520FEF712FC2520FEF70B
:102A000002FC10BD10B50C480C4908604FF416507C
:102A10004860002109488160C16001610C21416169
:102A200000218161C161FFF7F3F818B14B2104A0C7
:102A300000F072FC10BD0000001001401C000020DE
:102A40002E2E2F5372632F75736172742E630000E4
:102A500000BFFEE77047000002480068C0F3022094
:102A6000704700000CED00E010B5002807DA0A07F7
:102A7000140E054A00F00F031B1FD45403E00A078D
:102A8000130E024A135410BD18ED00E000E400E0FC
:102A9000704700003EB50446208861490880608880
:102AA0004880207908712089088160894881072140
:102AB0006846FDF7EFFE9DF8020000F00F000128C8
:102AC00038D19DF8030000F00F00208020884FF6D9
:102AD000FF7101EA0020208020889DF8041008443E
:102AE0002080208840F25631884204DA2088081A73
:102AF000401E208001E0002020809DF8050000F0AD
:102B00000F00608060884FF6FF7101EA002060804E
:102B100060889DF80610084460806088B0F5F07FFA
:102B200005DA6088C0F5F070401E608006E0002085
:102B3000608003E040F6FF702080608038480079B4
:102B400068B9208840F6FF71884205D160888842C4
:102B500002D10020207129E00120207126E03048B8
:102B60000079012803D02E48007902280DD1208851
:102B700040F6FF71884205D16088884202D1032067
:102B8000207113E00220207110E02548007903280D
:102B90000CD1208840F6FF71884205D160888842B8
:102BA00002D10020207101E001202071207902284B
:102BB00030D120881A490988401A00B22081208922
:102BC00010B9002060710CE0B4F90800002802DDA3
:102BD0000220607105E0B4F90800002801DA012044
:102BE000607160880E494988401A00B2608160892E
:102BF00010B90020A07112E0B4F90A00002802DD2B
:102C00000220A0710BE0B4F90A00002807DA0120C5
:102C1000A07104E000206071A071208160813EBD40
:102C20007C020020704710B5FEF788FAFEF744FFDB
:102C300010BD000010B592B000BF002000902F48DA
:102C4000006840F080502D4908600846006800F098
:102C50008050009000BF00BF00BF002000902848B7
:102C6000006840F48040264908600846006800F487
:102C70008040009000BF00BF012006900004079034
:102C800002200C9041050D9108210E914FF4A8717E
:102C90000F91022110910421119106A8FEF786FCE4
:102CA00018B1C62117A000F037FB0F2001900220B9
:102CB0000290002003904FF4A05004904FF48050F5
:102CC0000590052101A8FEF7FDFA18B1D4210DA049
:102CD00000F022FBFEF7DEFB4FF47A71B0FBF1F45B
:102CE0002046FEF7CFFE0420FEF7B7FE0022114675
:102CF000501EFEF795FA12B010BD00004038024099
:102D0000007000402E2E2F5372632F6D61696E2E5E
:102D1000630000001448006840F470001249086025
:102D20001248006840F001001049086000200F4977
:102D3000083108600D4800680D4908400B490860DB
:102D40000C48091D0860081F006820F48020091F36
:102D50000860002005490C3108604FF0006002490E
:102D6000803908607047000088ED00E000380240BC
:102D7000FFFFF6FE1030002470B50546AC6B002056
:102D8000E085E0842046FEF79BFE70BD70B50646E8
:102D90000025B46B20684069C0F3C01594F8390071
:102DA000212805D125B10020E084204600F060F8FC
:102DB00020684069C0F3801594F83A00222805D1B4
:102DC00025B10020E085204600F032F8E06B40F0AD
:102DD0001000E0632046FEF773FE70BD70B5054637
:102DE000AC6B2868006800F48070B0B90020E08502
:102DF0002068C06820F480702168C860206840693D
:102E000020F00100216848612068406920F04000FE
:102E100021684861202084F83A002046FEF7F2FF3E
:102E200070BD70B50446A56B2846FEF7ECFF70BD7B
:102E30000168C96821F490710268D160016849692C
:102E400021F0010102685161202180F83A10704799
:102E500010B504462068C06820F040002168C860B2
:102E6000202084F839002046FEF7FAFF002010BD2C
:102E70000168C96821F0C0010268D160202180F892
:102E80003910704770B5044694F83A00222844D1AE
:102E9000A068B0F5805F13D1A56A206940B92068A9
:102EA0004068C0F308002880A06A801CA06219E076
:102EB00020684068C0B22880A06A401CA06211E06F
:102EC000206938B920684068C1B2A26A501CA0626B
:102ED000117007E02068406800F07F01A26A501C72
:102EE000A0621170E08D401E80B2E08598B9206824
:102EF000C06820F490702168C8602068406920F0A4
:102F0000010021684861202084F83A002046FEF73D
:102F100079FF002070BD0020FCE70220FAE70000E6
:102F20002DE9F041044600252068056925F4405547
:102F3000E0680543206805612068C56849F20C60B7
:102F400085432169A068084361690843E169084332
:102F500005432068C5602068456925F44075A0696F
:102F6000054320684561E069B0F5004F7ED1C44952
:102F70002068884203D0C349206888425DD1FEF7AB
:102F8000A5FA00EBC00101EB001061684900B0FB3D
:102F9000F1F06421B0FBF1F00601FEF797FA00EBC7
:102FA000C00101EB001061684900B0FBF1F7FEF7CA
:102FB0008DFA00EBC00101EB001061684900B0FB25
:102FC000F1F06421B0FBF1F000EBC00101EB001067
:102FD000A7EB8000322101EBC0006421B0FBF1F0CF
:102FE00000F0F80006EB4006FEF770FA00EBC001B7
:102FF00001EB001061684900B0FBF1F7FEF766FADB
:1030000000EBC00101EB001061684900B0FBF1F07A
:103010006421B0FBF1F000EBC00101EB0010A7EB65
:103020008000322101EBC0006421B0FBF1F000F020
:10303000070030442168886020E1FEF731FA00EB98
:10304000C00101EB001061684900B0FBF1F06421A0
:10305000B0FBF1F00601FEF723FA00EBC00101EB33
:10306000001061684900B0FBF1F700E045E0FEF7B1
:1030700017FA00EBC00101EB001061684900B0FBDA
:10308000F1F06421B0FBF1F000EBC00101EB0010A6
:10309000A7EB8000322101EBC0006421B0FBF1F00E
:1030A00000F0F80006EB4006FEF7FAF900EBC0016D
:1030B00001EB001061684900B0FBF1F7FEF7F0F991
:1030C00000EBC00101EB001061684900B0FBF1F0BA
:1030D0006421B0FBF1F000EBC00101EB0010A7EBA5
:1030E0008000322101EBC0006421B0FBF1F000F060
:1030F0000700304421688860C0E061492068884248
:1031000003D06049206888425CD1FEF7DFF900EB0C
:10311000C00101EB001061688900B0FBF1F6FEF719
:10312000D5F900EBC00101EB001061688900B0FB2C
:10313000F1F06421B0FBF1F000EBC00101EB0010F5
:10314000A6EB8000322101EB00106421B0FBF1F00E
:1031500000F0F006FEF7BAF900EBC00101EB001039
:1031600061688900B0FBF1F06421B0FBF1F006EB7F
:103170000016FEF7ABF900EBC00101EB001061682F
:103180008900B0FBF1F7FEF7A1F900EBC00101EBFC
:10319000001061688900B0FBF1F06421B0FBF1F030
:1031A00000EBC00101EB0010A7EB8000322101EB26
:1031B00000106421B0FBF1F000F00F0030442168F2
:1031C00088605BE0FEF76CF900EBC00101EB0010DA
:1031D00061688900B0FBF1F6FEF762F900EBC0010F
:1031E00001EB001061688900B0FBF1F06421B0FBD5
:1031F000F1F000EBC00101EB0010A6EB80003221E2
:1032000001EB00106421B0FBF1F000F0F006FEF7D6
:1032100047F900EBC00101EB001061688900B0FBC9
:10322000F1F06421B0FBF1F006EB0016FEF738F97F
:1032300000EBC00101EB001061688900B0FBF1F701
:10324000FEF72EF900EBC00101EB00106168890068
:10325000B0FBF1F06421B0FBF1F000EBC00101EB39
:103260000010A7EB8000322101EB00106421B0FBBD
:10327000F1F000F00F00304421688860BDE8F08173
:103280000010014000140140014691F83900212846
:103290002CD18868B0F5805F0FD10A6A1088C0F31E
:1032A00008000B685860086918B9086A801C086231
:1032B00009E0086A401C086205E00B6A581C0862B5
:1032C00018780B685860C88C401E80B2C88458B902
:1032D0000868C06820F080000B68D8600868C06883
:1032E00040F040000B68D860002070470220FCE7E7
:1032F00010B50248FEF7E6FB10BD00001C000020E0
:1033000000BFFEE74FF0C0410880704701490880C8
:10331000704700000000026000BFFEE702E008C83E
:10332000121F08C1002AFAD170477047002001E03F
:1033300001C1121F002AFBD1704700002DE9FC419A
:103340000446207800287CD157E1DE48FFF7A2FB35
:103350000220DC490871002828D008460088B0F512
:10336000547F24DA08460088B0F53B7F1FDD08460D
:103370004088B0F58F7F19DA08464088BA2815DDF5
:10338000D1480078052802D1CF49087004E0CE4822
:103390000078401CCC490870CB4800783030C2B26D
:1033A0004023DC2140F2B220FFF7A0F823E1C5481A
:1033B0000088B0F5227F24DAC2480088B0F5097F82
:1033C0001FDDC0484088B0F58F7F0FDABD484088C8
:1033D000BA280BDDBC480078012802D1BA49087030
:1033E00004E0B9480078401EB7490870B648007834
:1033F0003030C2B24023DC2140F2B220FFF776F831
:10340000F9E0B0484088B0F5BE7FCFDDAD484088D8
:10341000B0F5F07FCADA002040F2DF1340F25532F7
:10342000DC210090FFF7FEF84FF48072A749A8480E
:10343000FEF786FC40230E224FF4BE714FF4A370BA
:1034400000E0DFE000F05CFE40230F224FF4BE718D
:103450004FF4D97000F054FE40230222DC21DA2020
:1034600000F04EFE40230322DC214FF48D7000F06B
:1034700047FE40230422DC214FF4AD7000F040FEF3
:1034800040230522DC214FF4CD7000F039FE4023AB
:103490003A22DC214FF4ED70FFF728F84023252273
:1034A000DC2140F25A20FFF721F880200190012210
:1034B00001A98748FEF7A8FC00F088FE002579E006
:1034C0000520B5FBF0F100FB1150E0BB2E467E4815
:1034D0000078C0EB00108000B6FBF0F06421B0FB78
:1034E000F1F03030C7B240233A46DC214FF4FB7094
:1034F000FEF7FCFF74480078C0EB00108000B6FBBC
:10350000F0F00A21B0FBF1F0B0FBF1F201FB120088
:1035100000F1300740233A46DC2140F21620FEF746
:10352000E5FF69480078C0EB00108000B6FBF0F0C2
:103530000A21B0FBF1F201FB120000F13007402339
:103540003A46DC2100E003E040F23620FEF7CEFFF1
:10355000012000F0C9F85B48FFF79CFA5948408801
:10356000B0F5BE7F22DD57484088B0F5EF7F1DDC07
:1035700000F02CFE40200190012201A95448FEF7E2
:1035800043FC4FF4807251495148FEF7D9FB4FF488
:103590007A7000F0A9F820200190012201A94C487E
:1035A000FEF732FC01202070BDE8FC81092000F00C
:1035B0009BF86D1C44480078C0EB0010800000EBC5
:1035C000C00101EB0010B5EB800FFFF479AF402094
:1035D0000190012201A93E48FEF716FC4FF47A70D3
:1035E00000F082F820200190012201A93848FEF75E
:1035F0000BFC0120207000F0E9FD207800283FF44A
:10360000A4AE5CE02078012820D11BE02D48FFF714
:1036100041FA2C48008840F2F221884212DD294804
:10362000008840F2563188420CDA26484088D22879
:1036300008DD24484088B0F5877F03DA0220207037
:1036400000F0C4FD20780128E0D038E0207802287E
:1036500035D131E01B48FFF71DFA1A48008840F2C7
:10366000F221884213DD1748008840F25631884223
:103670000DDA14484088D22809DD12484088B0F598
:10368000877F04DA0020207000F0A0FD14E00D48D0
:103690000088142810DD0B48008864280CDA0948DB
:1036A0004088D22808DD07484088B0F5877F03DAD4
:1036B0000120207000F08AFD20780228CAD000BFC7
:1036C00072E7000070020020160000200C010020AC
:1036D0001C00002010B504460420FEF7BEF9014886
:1036E000046010BD1800002030B50446002504E039
:1036F0004FF47A7000F004F86D1CA542F8D330BD89
:1037000070B5034600224FF0E02675690D4E36680D
:1037100003FB06F44FF0E026B16910E04FF0E0261D
:10372000B06988420BD0884202D20E1A324402E0BD
:103730002E1A0E4432440146A24200D300E0EDE7C7
:1037400000BF70BD1800002008B54FF4FA70FFF7F5
:10375000CBFF0020FEF748FF502305221E21B92091
:1037600000F0CEFC502306221E2140F2091000F08A
:10377000C7FC502307221E2140F2591000F0C0FC64
:10378000502308221E2140F2A91000F0B9FC50235A
:103790000B221E2140F2F91000F0B2FC50230C2243
:1037A0001E2140F2492000F0ABFC4FF6FF7096233B
:1037B00040F25532194600900020FDF7CBF84FF645
:1037C000FF70972340F25532194600900020FDF714
:1037D000C1F84FF6FF70982340F255321946009019
:1037E0000020FDF7B7F84FF6FF70992340F25532ED
:1037F000194600900020FDF7ADF84FF6FF709A23B0
:1038000040F25532194600900020FDF7A3F84FF61C
:10381000FF709B2340F25532194600900020FDF7BF
:1038200099F800F093F900F0D1FBD02140F202307A
:1038300000F07AF908BD70B504460D4640233C22DD
:1038400029462046FEF752FE04F1200188B24023AB
:103850002D222946FEF74AFE70BD000008B5002063
:103860000090FDF773FCFFF7E5F9FEF7CFFFFEF7D9
:103870006DFFFFF7C7F8FEF785FFFFF7B1F84FF4CC
:1038800080720F490F48FEF75BFAA820FFF722FF6E
:10389000FDF730F8FEF754FC0020FEF7A5FE0DE022
:1038A0000948FFF7F7F8684600F0E8F86846FFF7C0
:1038B00045FD00F08BFC0A20FFF716FFF0E7000043
:1038C0000C0100201C0000207002002008B5002020
:1038D000FEF78AFE4FF6FF70A02340F255321946DC
:1038E00000900020FDF736F84FF6FF70A12340F25C
:1038F0005532194600900020FDF72CF84FF6FF7066
:10390000A22340F25532194600900020FDF722F81C
:103910004FF6FF70A32340F2553219460090002065
:10392000FDF718F84FF6FF70A42340F25532194600
:1039300000900020FDF70EF84FF6FF70A52340F22F
:103940005532194600900020FDF704F8502300225C
:103950002821A42000F0D4FB5023012228214FF479
:10396000887000F0CDFB5023022228214FF4BE7056
:1039700000F0C6FB5023032228214FF4F47000F01E
:10398000BFFB5023042228214FF4157000F0B8FB30
:10399000402300224FF4BE71DA2000F0B1FB402337
:1039A00001224FF4BE714FF4A37000F0A9FB402335
:1039B00008224FF4BE714FF4D97000F0A1FB4023F0
:1039C00009224FF4BE7140F21E2000F099FB402303
:1039D0000822DC21502000F093FB40230922DC2147
:1039E000902000F08DFB40230A22DC21D02000F043
:1039F00087FB40230B22DC214FF4887000F080FB12
:103A000040233A22DC214FF4A870FEF76FFD4023DB
:103A10002822DC214FF4B870FEF768FD40230C2209
:103A2000DC214FF4C87000F06BFB40230D22DC2139
:103A30004FF4E87000F064FB40232922DC214FF4AE
:103A40000470FEF753FD40232B22DC2140F2163098
:103A5000FEF74CFD40232D22DC2140F24E20FEF7E4
:103A600045FD054800783030C2B24023DC2140F2E9
:103A7000B220FEF73BFD08BD1600002010B504463D
:103A8000207810B9FFF722FF0AE02078012802D140
:103A9000FFF75AFE04E02078022801D100F002F876
:103AA00010BD00002DE9F041002500260027232449
:103AB00005E01C48005D2844C5B2601CC4B22D2C32
:103AC000F7DB412405E01748005D3044C6B2601CB6
:103AD000C4B24B2CF7DB692405E01248005D384482
:103AE000C7B2601CC4B2732CF7DB0020FEF77CFD6C
:103AF000D0211420FFF79FFED02140F2023000F0C9
:103B000013F850230D221E2140F2311000F0F8FA74
:103B100050230E221E2140F2D11000F0F1FABDE830
:103B2000F08100000C01002070B504460D464023D2
:103B30002D2229462046FEF7D9FC04F1200188B247
:103B400040233E222946FEF7D1FC70BDF8B5002483
:103B50000DE04FF6FF70009004F5D27083B281B291
:103B600040F2F2223220FCF7F5FE601C84B2062CF3
:103B7000EFDB00240DE04FF6FF7004F164018AB220
:103B8000009088B2B5234FF4EB71FCF7E3FE601CA4
:103B900084B2062CEFDB002410E04FF6FF7000909B
:103BA00004F1BE0083B2C4F1620082B204F1AA0043
:103BB00081B26720FCF7CEFE601C84B20C2CECDBDB
:103BC00000240EE04FF6FF70009004F1BE0083B2B7
:103BD000523882B23E3081B26720FCF7BBFE601CD7
:103BE00084B20C2CEEDB002414E04FF6FF70C4F519
:103BF000D1718BB240F2DD21091B0A318AB240F249
:103C0000FB21091B009088B240F2A711FCF7A2FE2D
:103C1000601C84B20C2CE8DB002414E04FF6FF702B
:103C200004F5D6718BB240F2DD21091B0A318AB24C
:103C300040F2FB21091B009088B240F2A711FCF76B
:103C400089FE601C84B20C2CE8DB20234F224FF449
:103C5000D9714C20FEF74AFC01243AE04FF6FF7080
:103C6000C4EB0411C90064318AB2C4EB0411C90069
:103C70006431009088B24FF4CD734FF4D271FCF7E9
:103C800069FE4FF6FF70C4EB0411C90065318AB2BA
:103C9000C4EB0411C9006531009088B24FF4CD73B4
:103CA0004FF4D271FCF756FE4FF6FF70C4EB0411CF
:103CB000C90066318AB2C4EB0411C90066310090B4
:103CC00088B24FF4CD734FF4D271FCF743FE601C01
:103CD00084B2052CC2DD01243CE04FF6FF70009059
:103CE00004EB8400C000C0F5D27083B204EB840002
:103CF000C000C0F5D27081B26F226A20FCF72AFEA4
:103D00004FF6FF70009004EB8400C000C0F5D27045
:103D1000401C83B204EB8400C000C0F5D270401C8C
:103D200081B26F226A20FCF715FE4FF6FF700090FB
:103D300004EB8400C000C0F5D37083B204EB8400B0
:103D4000C000C0F5D37081B26F226A20FCF702FE7A
:103D5000601C84B2052CC0DD012437E04FF6FF70F3
:103D600004EB4401C90064318AB204EB4401C90088
:103D70006431009088B24FF4CF73991DFCF7EAFDCF
:103D80004FF6FF7004EB4401C90065318AB204EBC1
:103D90004401C9006531009088B24FF4CF73991D7A
:103DA000FCF7D8FD4FF6FF7004EB4401C900663103
:103DB0008AB204EB4401C9006631009088B24FF426
:103DC000CF73991DFCF7C6FD601C84B21A2CC5DDAB
:103DD00001243CE04FF6FF70009004EB8400C0002B
:103DE000C0F5DC7083B204EB8400C000C0F5DC7069
:103DF00081B26D226A20FCF7ADFD4FF6FF70009096
:103E000004EB8400C000C0F5DC70401C83B204EBFE
:103E10008400C000C0F5DC70401C81B26D226A20B5
:103E2000FCF798FD4FF6FF70009004EB8400C00093
:103E3000C0F5DD7083B204EB8400C000C0F5DD7016
:103E400081B26D226A20FCF785FD601C84B2052CCE
:103E5000C0DD1924A8E0322C1ED1C4EB0410C00030
:103E6000192190FBF1F0543085B2202335224FF414
:103E7000D7712846FEF73AFBC4EB0410C0001921A5
:103E800090FBF1F0643085B2202330224FF4D771DB
:103E90002846FEF72BFB84E0192C1ED1C4EB04103E
:103EA000C000192190FBF1F0543085B2202332225A
:103EB0004FF4D7712846FEF719FBC4EB0410C0007D
:103EC000192190FBF1F0643085B2202335224FF4A4
:103ED000D7712846FEF70AFB63E04B2C1ED1C4EBDA
:103EE0000410C000192190FBF1F0543085B220235A
:103EF00037224FF4D7712846FEF7F8FAC4EB0410C6
:103F0000C000192190FBF1F0643085B220233522E6
:103F10004FF4D7712846FEF7E9FA42E0642094FB9B
:103F2000F0F03030C5B2C4EB0410C000192190FB92
:103F3000F1F04C3086B220232A464FF4D771304638
:103F4000FEF7D4FA0A2094FBF0F00A2190FBF1F27C
:103F500001FB12003030C5B2C4EB0410C0001921BF
:103F600090FBF1F05C3086B220232A464FF4D771E3
:103F70003046FEF7BBFA0A2094FBF0F100FB11403B
:103F80003030C5B2C4EB0410C000192190FBF1F031
:103F90006C3086B220232A464FF4D7713046FEF7A4
:103FA000A5FA04F1190084B27D2C7FF754AF2023C9
:103FB0004322B1213720FEF799FA202341224FF402
:103FC000D8714FF43B70FEF791FAF8BDF0B52DEDC6
:103FD000088B81B0002473E03C4A12F81420610081
:103FE000491C3A4B595C02EB0120FCF771FA41EC99
:103FF0001B0B9FED370B53EC102BFCF788F941ECB2
:104000001A0B9FED350B53EC102BFCF7F2F941EC3A
:10401000190B9FED330B53EC102BFCF775F941ECAA
:10402000180BFCF773FA86B22046FCF762FA41ECF3
:104030001B0B9FED2D0B53EC102BFCF768F941EC9B
:104040001A0B9FED2B0B53EC102BFCF760F941EC96
:10405000190B9FED290B53EC102BFCF7B1F841EC39
:10406000180BFCF753FA85B22046FCF742FA41ECF4
:104070001B0B9FED1D0B53EC102BFCF748F941EC8B
:104080001A0B9FED1B0B53EC102BFCF740F941EC86
:10409000190B9FED190B53EC102BFCF791F841EC29
:1040A000180BFCF733FA87B24FF6FF7033462A46F7
:1040B0004FF4D27100903846FCF74CFC601C84B27F
:1040C000802C89DB01B0BDEC088BF0BD0C01002019
:1040D0009A9999999999E93F000000000000704071
:1040E0000000000000407A40333333333333034061
:1040F00000000000000000400000000000005940E7
:104100002DE9FC5F81460D4617461C46AA462B4802
:10411000B0F800B02046E11704EB5171C9106143BB
:1041200089B20091002640E0502C09D107EBC7006E
:1041300000EB0710224901EB401010F8068006E062
:10414000402C04D11F4800EB472010F806800020C7
:10415000019024E008F0800018B11848A0F800B0E1
:1041600003E0194800881549088014480288294648
:104170004846FCF74FFC4FF6FF7000EA4808681C01
:1041800085B2A5EB0A00A04205D1554609F1010010
:104190001FFA80F906E00198401C80B20190019856
:1041A0000828D7DB00BF701C86B200988642BBDBB4
:1041B0000248A0F800B0BDE8FC9F000012000020FB
:1041C000D0B80008B0E700081400002010B5074878
:1041D000FEF760FC05E00548FEF75CFC0A20FFF7EF
:1041E00083FA024800790028F5D110BD7002002042
:1041F0000000000000000000010203040607080997
:10420000000000000102030400061016000610164C
:10421000000000000000000000000000000000009E
:10422000000000000000000000000000000000008E
:10423000000000000000000000000000000000007E
:10424000000000000000000000000000000000006E
:10425000000000000000000000000000000000005E
:1042600000000000000000000FFC00E00FFFF8E07D
:104270000FFFF8E0000000E0000000000000000078
:10428000000000000000000000000000000000002E
:10429000000000000000000000000000000000001E
:1042A00007F0000007F00000078000000000000099
:1042B0000000000007F0000007F000000780000089
:1042C00000000000000000000000000000000000EE
:1042D00000000000000C1C00000C1C20000C3FE043
:1042E000001FFFC003FFDC0003EC1C00000C1C00DF
:1042F000000C1C00000C1FE0000FFFE003FFFC009F
:1043000003FC1C00000C1C00000C1C000000000042
:10431000000000000000000000780F8001FE0FC0C8
:1043200001FF0FE003870060030380701FFFFFFEA3
:104330001FFFFFFE0300E07003C0F0E001F07FE02C
:1043400000F03FC000000E00000000000000000070
:104350000000000001FF000003FF800003018070E7
:104360000301818003FF060000FE38000000E0002A
:1043700000030000000C3FC000707FE001C0C030AF
:104380000300606000007FE000001F80000000006C
:104390000000000000001F8000007FC000F8F1E076
:1043A00001FFC0E0038FC0700303F0700307787053
:1043B000030E3C6003FC0EE001F807C0000007C0DC
:1043C00000003FC000003CE0000000E000000000F2
:1043D00000000000000000000000000000000000DD
:1043E000000000000000000003F0000003F00000E7
:1043F00000000000000000000000000000000000BD
:1044000000000000000000000000000000000000AC
:10441000000000000000000000000000000000009C
:104420000000000000000000000000000003F00099
:10443000003FFE0000F80F8001C001E0070000709F
:104440000E0000381C00000C0800000000000000F6
:10445000000000000800000C1C00001C0E000038CA
:10446000038000F001E003C0007FFF80001FFC001C
:10447000000000000000000000000000000000003C
:10448000000000000000000000000000000000002C
:10449000000000000060C0000071C000003180001A
:1044A000003B8000001B0000001F000003FFFC0019
:1044B00003FFFC00001F0000001B0000003B800009
:1044C000003180000071C0000060C00000000000EA
:1044D0000000000000018000000180000001800059
:1044E000000180000001800000018000007FFF00CB
:1044F000007FFF00000180000001800000018000BB
:104500000001800000018000000180000000000028
:104510000000000000000000000000000000006E2D
:1045200000000078000000600000000000000000B3
:10453000000000000000000000000000000000007B
:10454000000000000000000000000000000000006B
:1045500000000000000180000001800000018000D8
:104560000001800000018000000180000001800047
:104570000001800000018000000180000001800037
:1045800000018000000180000001800000000000A8
:10459000000000000000000000000060000000605B
:1045A00000000060000000000000000000000000AB
:1045B00000000000000000000000000000000000FB
:1045C00000000000000000000000000000000000EB
:1045D000000000000000003800000070000001C072
:1045E0000000070000001C00000070000000E00058
:1045F00000038000000E0000003800000060000092
:1046000001C00000070000000400000000000000DE
:1046100000000000000FF800007FFF0000FFFFC057
:1046200001E003C0038000E00300006003000070AD
:10463000030000700300006003C000E001F007C049
:1046400000FFFF80003FFE000000000000000000AF
:104650000000000000000000000000000038000022
:10466000003000000060000000C0000003FFFFE019
:1046700003FFFFE003FFFFE0000000000000000078
:10468000000000000000000000000000000000002A
:10469000000000000020000000E000E001E001E078
:1046A00003C003E0038007E003000E6003001C600A
:1046B000030078600300F0600383C06001FF806046
:1046C00001FF0060007800600000000000000000B2
:1046D00000000000000002000060038000F007C03E
:1046E00001C001E0038000E00301806003018070ED
:1046F000030180700303C0600383C0E001FEFBC0C0
:1047000001FE7FC000783F000000000000000000B4
:1047100000000E0000001E0000007E000000FE00F1
:104720000003CE0000078E00000E0E00003C0E00BD
:1047300000780E0001E00E0003FFFFE003FFFFE042
:1047400000000E0000000E0000000E00000000003F
:104750000000000000018380001F87C003FF81E08C
:1047600003F3006003060070030600700306007088
:1047700003060070030700E0030380E00303E7C0C3
:104780000301FF8000007F00000000000000000027
:104790000000000000003E000000FF800003FFC09A
:1047A000000FC1E0001F80E0007F006000F3007098
:1047B00003E300700383007003030060000380E0E4
:1047C0000001FFC00000FF8000007F00000000002B
:1047D00000000000030000000300000003000000D0
:1047E00003000020030001E003000FE003007F80CE
:1047F0000301FC000307E000031F0000037C00002E
:1048000003F0000003C0000003800000000000006F
:104810000000000000003F8000FE7FC001FEF3E0CA
:104820000387E0E00303C060030180700301807030
:10483000030180700303C0600387C0E001FEF1E064
:1048400000FE7FC000783F800000000000000000F4
:1048500000000000007F800000FFC00001E1E000D8
:104860000380E01003806070030061F0030067C004
:1048700003007F800380FE0003C1F80001FFE00019
:1048800000FFC000007E00000000000000000000EB
:104890000000000000000000000000000000000018
:1048A000000000000000000000070060000700603A
:1048B0000007006000000000000000000000000091
:1048C00000000000000000000000000000000000E8
:1048D00000000000000000000000000000000000D8
:1048E0000000000000000000000700620007007EDA
:1048F0000007007800000000000000000000000039
:1049000000000000000000000000000000000000A7
:1049100000000000000080000001C0000003E00073
:104920000003300000061800000C1C0000180E00E8
:10493000003007000060030000C00180018000C05B
:10494000038000600700003002000000000000004B
:1049500000000000001C1800001C1800001C1800BB
:10496000001C1800001C1800001C1800001C180077
:10497000001C1800001C1800001C1800001C180067
:10498000001C1800001C1800001C1800000000008B
:10499000000000000200002007000070038000609B
:1049A00001C000C000E0018000700300003006007C
:1049B00000180C00000C18000006380000037000FE
:1049C0000001E0000000C000000000000000000046
:1049D00000000000000000000078000001F8000066
:1049E00001F8000003800000030038E00300F8E055
:1049F0000301F8E00383C00003CF800001FF000043
:104A000000FE000000300000000000000000000078
:104A100000000000001FFE000070038000C000C006
:104A20000183FC60010FFE20021C062002300610EC
:104A300002300C100233FC20021FE620013C06402D
:104A40000180044000703800001FE00000000000FA
:104A500000000000000001E000000FE000007FE027
:104A60000007FE00003FF80003FF380003F03800A5
:104A700003F8380001FF3800001FF8000003FF00B2
:104A800000007FE0000007E0000000E00000000000
:104A90000000000003FFFFE003FFFFE003FFFFE073
:104AA0000301806003018060030180600301806076
:104AB000030180600381C0600383C0E001FFE1E087
:104AC00000FE7FC0007C3F8000001E000000000050
:104AD000000000000007F800003FFF0000FFFF801B
:104AE00001F807C003C000E003800060030000700D
:104AF0000300007003000070038000E001C001E0CB
:104B000001FC1FC000FC1F80001C1C0000000000F6
:104B10000000000003FFFFE003FFFFE003FFFFE0F2
:104B20000300006003000060030000600380006079
:104B3000038000E001C000E001E001C000FC1FC0F4
:104B4000007FFF80003FFE000003E0000000000047
:104B5000000000000000000003FFFFE003FFFFE093
:104B600003FFFFE0030180600301806003018060B8
:104B700003018060030180600301806003018060A5
:104B8000030180600300006000000060000000007E
:104B90000000000003FFFFE003FFFFE003FFFFE072
:104BA0000301C0000301C0000301C0000301C000F5
:104BB0000301C0000301C0000301C0000301C000E5
:104BC00003000000030000000300000000000000DC
:104BD000000000000007F800003FFF0000FFFFC0DA
:104BE00001F007C003C000E0038000600300007014
:104BF0000300607003006060038060E001F861C042
:104C000000F87FF000787FF0000000000000000056
:104C10000000000003FFFFE003FFFFE003FFFFE0F1
:104C20000001800000018000000180000001800080
:104C300000018000000180000001800003FFFFE010
:104C400003FFFFE003FFFFE00000000000000000A2
:104C50000000000000000000000000000000000054
:104C6000000000000000000003FFFFE003FFFFE082
:104C700003FFFFE000000000000000000000000053
:104C80000000000000000000000000000000000024
:104C9000000000000000000000001F8000001FC096
:104CA00000001FE0000000E0000000700000007045
:104CB0000000007000000060000000E003FFFFE063
:104CC00003FFFFC003FFFF00000000000000000022
:104CD0000000000003FFFFE003FFFFE003FFFFE031
:104CE0000001E0000003C000000F8000001FE00092
:104CF000003DF80000F87E0001E01F8003C007C0FF
:104D0000038003E0030000E000000020000000003A
:104D10000000000003FFFFE003FFFFE003FFFFE0F0
:104D20000000006000000060000000600000006003
:104D300000000060000000600000006000000060F3
:104D40000000006000000060000000600000000043
:104D50000000000003FFFFE003FFFFE003FFFFE0B0
:104D600003FE0000007FF0000003FF8000001FE052
:104D700000003FE0000FFF0001FFE00003FC000027
:104D800003FFFFE003FFFFE003FFFFE00000000080
:104D90000000000003FFFFE003FFFFE003FFFFE070
:104DA00003F00000007E0000001F80000007E0000C
:104DB0000001F80000003F0000000FC003FFFFE00B
:104DC00003FFFFE003FFFFE0000000000000000021
:104DD00000000000001FFC00007FFF8001FFFFC0FB
:104DE00001E003E0038000E00300006003000070C6
:104DF000030000700380006003C000E001F007E0E2
:104E000000FFFFC0007FFF000007F8000000000067
:104E1000000000000000000003FFFFE003FFFFE0D0
:104E200003FFFFE003006000030060000300600078
:104E3000030060000380E0000380E00001C1C000C7
:104E400001FFC00000FF8000003E000000000000E5
:104E500000000000001FFC00007FFF8001FFFFC07A
:104E600001E003E0038000E0030000600300007045
:104E700003000C7003801F6003C007E001F007F01F
:104E800000FFFFF0007FFF200007F8000000000097
:104E90000000000003FFFFE003FFFFE003FFFFE06F
:104EA0000300C0000300C0000300C0000300C000F6
:104EB0000300F0000381FC000381FF0001FF8FC0AD
:104EC00001FF83E0007F00E0000000200000000000
:104ED000000000000000070000FC078001FE07C082
:104EE00001FF01E00387806003038070030180708D
:104EF0000301C0700381E06003C0E0E001F079E0ED
:104F000000F07FC000303F80000000000000000083
:104F10000000000003000000030000000300000088
:104F2000030000000300000003FFFFE003FFFFE0B9
:104F300003FFFFE003000000030000000300000087
:104F4000030000000300000000000000000000005B
:104F50000000000003FFFE0003FFFF8003FFFFC00F
:104F6000000001E0000000E00000007000000070A0
:104F70000000007000000070000000E003FFFFE090
:104F800003FFFFC003FFFF800000000000000000DF
:104F90000200000003C0000003FC000001FF8000CD
:104FA000001FF8000003FF0000003FF0000003F0C6
:104FB00000000FF00000FFC00007FC00007FE000D1
:104FC00003FF000003F00000038000000000000069
:104FD0000380000003FF800003FFFF80000FFFF04D
:104FE00000000FF0000FFFE003FFF00003F80000E7
:104FF00003FF0000007FFE000000FFF000007FF0D4
:1050000001FFFFF003FFF80003F8000000000000BC
:105010000000000002000060038000E003E003E005
:1050200001F80F80007C3E00001FF8000007E00040
:10503000000FF000003E7C0000F81F0003F007C0E6
:1050400003C001E003000060000000200000000039
:10505000000000000300000003C0000003F0000097
:1050600000FC0000003F00000007FFE00001FFE03F
:105070000003FFE0000F8000003E000000F8000089
:1050800003E00000038000000200000000000000B8
:1050900000000000000000E0030001E0030007E062
:1050A00003001F6003003E600300F8600301E0603E
:1050B0000307C060031F0060033C006003F800604A
:1050C00003E000600380006000000060000000005A
:1050D00000000000000000000000000000000000D0
:1050E00000000000000000001FFFFFFE1FFFFFFE8A
:1050F0001800000618000006180000061800000638
:105100001800000618000006000000000000000063
:1051100000000000000000000600000007C00000C2
:1051200001F00000003E0000000F80000001F000D0
:1051300000007C0000000F80000003E00000007C05
:105140000000001E0000000200000000000000003F
:1051500000000000180000061800000618000006F5
:105160001800000618000006180000061FFFFFFECA
:105170001FFFFFFE00000000000000000000000014
:10518000000000000000000000000000000000001F
:105190000000000000000000000000000600000009
:1051A0000E0000001C00000038000000300000006D
:1051B000380000001C0000000E0000000600000087
:1051C00002000000000000000000000000000000DD
:1051D00000000001000000010000000100000001CB
:1051E00000000001000000010000000100000001BB
:1051F00000000001000000010000000100000001AB
:10520000000000010000000100000001000000019A
:10521000000000000000000000000000000000008E
:105220002000000030000000380000003C000000BA
:105230001E00000007000000010000000000000048
:10524000000000000000000000000000000000005E
:1052500000000000000001800000C7C00001CFE096
:105260000003CC6000071870000718700006186073
:1052700000061860000718E0000331C00003FFE0DB
:105280000001FFE00000002000000000000000001E
:105290000000000003FFFFE003FFFFE003FFFFE06B
:1052A0000001C1C00003006000060060000600703D
:1052B0000006007000070060000780E00003FFE0C8
:1052C0000001FFC000007F0000000000000000009F
:1052D0000000000000003E000000FF800001FFC051
:1052E000000381E00003006000070060000600701A
:1052F0000006007000070060000300E00003C3E048
:105300000001C3C00000C3800000000000000000D6
:105310000000000000007E000001FF800003FFC0CD
:10532000000380E0000700600006007000060070C7
:105330000006006000030060000380C003FFFFE080
:1053400003FFFFE003FFFFE000000000000000009B
:105350000000000000003E000000FF800001FFC0D0
:105360000003B1E0000330600006306000063070DA
:105370000006307000073070000330600003F1E079
:105380000001F1C00000F1800000000000000000FA
:1053900000000000000600000006000000060000FB
:1053A000000600000006000000FFFFE001FFFFE034
:1053B0000386000003060000030600000306000049
:1053C0000306000003800000000000000000000051
:1053D000000000000000000C0000639E0001FBFEC6
:1053E0000003FCE300070EE3000606630006066305
:1053F0000006066300030C630003FC630003F86609
:105400000006007E0006003C0006000000000000D0
:10541000000000000000000003FFFFE003FFFFE0CA
:105420000000E00000018000000300000006000012
:105430000006000000060000000700000007FFE073
:105440000003FFE00001FFE000000000000000009A
:10545000000000000000000000000000000000004C
:1054600000000000000000000387FFE00387FFE06A
:105470000387FFE0000000000000000000000000C3
:10548000000000000000000000000000000000001C
:105490000000000000000000000000000000000705
:1054A00000000003000000030000000300000003F0
:1054B000000000070387FFFE0387FFFC0387FFE070
:1054C00000000000000000000000000000000000DC
:1054D000000000000000000003FFFFE003FFFFE00A
:1054E00000001C0000003800000070000000F00008
:1054F0000001FC000003DF0000078780000703E0D5
:10550000000600E000040020000000000000000091
:10551000000000000000000000000000000000008B
:1055200000000000000000000000000003FFFFE09A
:1055300003FFFFE00000000000000000000000008A
:10554000000000000000000000000000000000005B
:105550000007FFE00007FFE00007FFE00001800018
:105560000003000000070000000700000007FFE044
:105570000003FFE0000180000003000000070000BE
:10558000000700000007FFE00003FFE0000000004C
:1055900000000000000000000007FFE00007FFE03F
:1055A0000000E00000018000000300000006000091
:1055B0000006000000060000000700000007FFE0F2
:1055C0000003FFE00001FFE0000000000000000019
:1055D0000000000000003E000000FF800001FFC04E
:1055E000000381E0000300E0000700600006007097
:1055F0000006007000070060000380E00003C1E0C7
:105600000001FFC00000FF8000001C00000000003F
:10561000000000000007FFFF0007FFFF0007FFFF7B
:105620000001C1C0000300600007007000060070A8
:105630000006007000070070000380E00003FFE038
:105640000001FFC000007F0000000000000000001B
:105650000000000000007E000001FF800003FFC08A
:10566000000380E000070070000700700006007073
:105670000006007000030060000380C00007FFFF09
:105680000007FFFF0007FFFF000000000000000010
:105690000000000000000000000000000007FFE024
:1056A0000007FFE00007FFE00000E00000018000CD
:1056B0000003800000030000000700000007000056
:1056C00000070000000000000000000000000000D3
:1056D00000000000000000000000C1800001F1C0D7
:1056E0000003F9E000073860000618700006187023
:1056F0000006187000061C7000070C6000038FE0A5
:10570000000187C0000003800000000000000000CE
:105710000000000000060000000600000006000077
:105720000006000000FFFF8000FFFFC000FFFFE059
:1057300000060060000600700006007000060070A1
:105740000006006000000060000000000000000093
:1057500000000000000000000007FFC00007FFE09D
:10576000000000E000000070000000300000003089
:105770000000006000000060000001C00007FFE0C2
:105780000007FFE00007FFE000000000000000004D
:105790000000000000040000000780000007F00087
:1057A0000001FE0000003F80000007F0000000F054
:1057B000000003F000000FE000007F000003F8008D
:1057C0000007C0000007000000000000000000000B
:1057D000000600000007F0000007FF0000003FF097
:1057E000000001F000003FF00007FE00000780000D
:1057F0000007F0000001FFC0000007F0000007F004
:105800000001FFC00007FC0000078000000000004E
:10581000000000000000000000060060000700E03B
:105820000007C1E00001E78000007F0000003C00AD
:1058300000007E000000F7800003C3C0000781E085
:1058400000070060000400200000000000000000CD
:105850000000000000060000000780070007F007B6
:105860000001FE0300003F87000007FF000000FE6C
:10587000000001F800000FE000007F000003F800C6
:105880000007E0000007000000000000000000002A
:105890000000000000000000000600E0000601E03B
:1058A000000603E00006076000060E6000061C60AC
:1058B000000678600006F0600007E0600007806086
:1058C0000007006000000060000000000000000011
:1058D00000000000000000000000000000000000C8
:1058E0000000000000000000000000000000C000F8
:1058F0000001C0000FFFFFFC1FFF7FFC1800000627
:10590000100000061000000600000000000000006B
:105910000000000000000000000000000000000087
:10592000000000000000000000000000FFFFFFFF7B
:10593000FFFFFFFF0000000000000000000000006B
:105940000000000000000000000000000000000057
:10595000000000000000000010000006100000061B
:105960001FFE1FFE1FFFFFFC0FFFFFF80000C0001F
:105970000000C00000000000000000000000000067
:105980000000000000000000000000000000000017
:1059900000000000000000001C00000038000000B3
:1059A000700000007000000070000000380000006F
:1059B000180000001C0000000E0000000E00000097
:1059C0001C00000078000000000000000000000043
:1059D00000000000000000000000000000000000C7
:1059E00000000000000000000000000000000000B7
:1059F00000000000000000000000000000000000A7
:105A00000000000000000000000000000000000096
:105A10000000000000000000000000000000000086
:105A20000000000000000000000000000000000076
:105A30000000000000000000000000000000000066
:105A40000000000000000000000000000000000056
:105A50000000000000000000000000000000000046
:105A60000000000000000000000000000000000036
:105A70000000000000000000000000000000000026
:105A80000000000000000000000000000000000016
:105A90000000000000000000000000000000000006
:105AA00000000000000000000000000000000000F6
:105AB00000000000000000000000000000000000E6
:105AC00000000000000000000000000000000000D6
:105AD00000000000000000000000000000000000C6
